:020000040000FA
:10000000E002001071010000790100007B01000096
:100010007D0100007F010000810100000000000060
:10002000000000000000000000000000830100004C
:100030008501000000000000870100008901000028
:100040008B010000EF2400008B0100008B010000F9
:100050008B0100008B0100008B0100008B01000070
:100060008B0100008B0100008B0100008B01000060
:100070008B0100008B0100008B0100008B01000050
:100080008B0100008B0100008B0100008B01000040
:100090008B0100008B0100008B0100008B01000030
:1000A0008B0100008B0100008B0100008B01000020
:1000B0008B0100008B0100008B0100008B01000010
:1000C0008B0100008B0100008B01000000F002F8A2
:1000D00000F03FF80AA090E8000C82448344AAF1A3
:1000E0000107DA4501D100F034F8AFF2090EBAE8A1
:1000F0000F0013F0010F18BFFB1A43F0010318475C
:10010000E03F000000400000103A24BF78C878C1EA
:10011000FAD8520724BF30C830C144BF04680C600D
:10012000704700000023002400250026103A28BF55
:1001300078C1FBD8520728BF30C148BF0B60704759
:10014000642903F0AF82002070471FB51FBD10B5B2
:1001500010BD03F0FEFB1146FFF7F7FF02F0F4F9C4
:1001600003F01CFC03B4FFF7F2FF03BC03F020FC18
:100170000948804709480047FEE7FEE7FEE7FEE73B
:10018000FEE7FEE7FEE7FEE7FEE7FEE70448054977
:10019000034A054B7047000039040000CD00000001
:1001A000E0000010E0020010E000001010B50A4668
:1001B000202801D2034601E0A0F12003194620289F
:1001C00014D2464B1B684FF0030404FA01F423EAEF
:1001D0000403434CC4F8A831404B1B6802FA01F4F5
:1001E00043EA04033E4CC4F8A83113E03D4B1B68BE
:1001F0004FF0030404FA01F423EA0403384CC4F872
:10020000AC31384B1B6802FA01F443EA0403344C66
:10021000C4F8AC3110BD0146202903D20A462F4B49
:10022000186803E0A1F120022E4B186820FA02F3AF
:1002300003F00300704770B506462B48046830464B
:10024000FFF7E9FF054635B1012D06D0022D06D096
:10025000032D08D105E0042505E0012503E0022572
:1002600001E0082500BF00BFB4FBF5F4204670BDD7
:1002700001290AD11D4A12681D4B00EA030342EA14
:100280000302174BC3F8C4200AE049B9174A1268A1
:10029000174B23EA000302EA0302114BC3F8C42000
:1002A000704700201349086030BF7047042012498E
:1002B000086008200F49086030BF704704200E49CD
:1002C000086009200B49086030BF704704200A49C4
:1002D000086003200749086030BF7047A8C10F407D
:1002E00000C00F40ACC10F4000000010C4C00F4060
:1002F000DEF7EFEFC0C00F4010ED00E0FFFFFFFFA3
:1003000094480068C0F30160032864D192480068F3
:1003100010F0030006D0012823D002283FD0032884
:1003200058D100E000BF8B480068C0F30E0000F118
:1003300001004FEA4000894900FB01F08849D1F8EB
:100340008810C1F3074101F10101B0FBF1F18548CB
:100350000068C0B200F10100B1FBF0F08249086012
:1003600038E07C480068C0F30E0000F101004FEA5D
:1003700040007E4900FB01F07949D1F88810C1F3B3
:10038000074101F10101B0FBF1F176480068C0B20C
:1003900000F10100B1FBF0F0734908601AE06D480C
:1003A0000068C0F30E0000F101004FEA00416C4804
:1003B000D0F88800C0F3074000F10100B1FBF0F174
:1003C00068480068C0B200F10100B1FBF0F0664976
:1003D000086000BF2FE06048006810F0030006D0FE
:1003E000012810D0022819D0032823D100E000BF33
:1003F0005C480068C0B200F101005849B1FBF0F060
:100400005949086016E057480068C0B200F1010081
:100410005649B1FBF0F0544908600BE051480068C0
:10042000C0B200F101004FF40041B1FBF0F04E49C1
:10043000086000BF00BF704720204D490860484851
:10044000D0F8A00110F0200F05D000BF4848006888
:1004500010F0400FFAD00320424908604FF000002E
:100460003F49C1F8A801434908604FF001003A49EB
:1004700008604148414908604FF0AA0040490860BF
:100480004FF0550008604FF001003E4908604FF002
:10049000AA003B4908604FF055003149C1F88C0073
:1004A00000BF2C48006810F0806FFAD00320354957
:1004B00008604FF0AA002A49C1F88C004FF055009F
:1004C0002F49086000BF2348006810F0407FFAD031
:1004D00023202D4908604FF0AA002149C1F8AC0043
:1004E0004FF05500294908604FF001002849086085
:1004F0004FF0AA00254908604FF055001849C1F88F
:10050000AC0000BF2348006810F4806FFAD00320CD
:100510001F4908604FF0AA001149C1F8AC004FF024
:1005200055001A49086000BF1A48006810F4407F5F
:10053000FAD01948194908604FF000000849C1F87D
:10054000C80143F23A0008604FF000001449086007
:100550007047000088C00F400CC10F4000093D00EB
:1005600000C00F4004C10F4000000010001BB70086
:10057000A0C10F40ACC10F406300050084C00F4014
:100580008CC00F4080C00F40A4C00F40ACC00F40D3
:10059000A0C00F40A8C00F40DE872804C4C00F4091
:1005A00008ED00E001460020052912D2DFE801F045
:1005B0000305080B0E00F8480CE0F748203009E06E
:1005C000F548403006E0F448603003E0F2488030FF
:1005D00000E000BF00BF704701460020052912D28D
:1005E000DFE801F00305080B0E00EB480CE0EA48D9
:1005F000203009E0E848403006E0E748603003E09A
:10060000E548803000E000BF00BF70470146002091
:10061000052912D2DFE801F00305080B0E00DE48C1
:100620000CE0DD48203009E0DB48403006E0DA48E5
:10063000603003E0D848803000E000BF00BF704762
:100640002DE9F04107460D4616463846FFF7AAFF4A
:1006500004463CB11EB120682843206002E02068B7
:10066000A8432060BDE8F08170B506460C463046D0
:10067000FFF798FF054605B1AC6170BD70B5064641
:100680000C463046FFF78EFF054605B1EC6170BDA4
:1006900070B505462846FFF785FF04460CB1606932
:1006A00070BD0020FCE718B912B9BC4B196014E00A
:1006B000022803D112B9BA4B19600EE020B9012A01
:1006C00002D1B84B196008E0022804D1012A02D1F6
:1006D000B54B196001E000BFFEE7704703463BB928
:1006E00032B9B248006820FA01F000F0010070470A
:1006F000022B07D132B9AE48006820FA01F000F0B1
:100700000100F4E743B9012A06D1AA48006820FA9B
:1007100001F000F00100EAE7022B08D1012A06D11E
:10072000A548006820FA01F000F00100DFE700BFF3
:10073000FEE710B9A14A116006E0022802D1A04AE2
:10074000116001E000BFFEE7704770B504460D463A
:100750001646324629462046FFF772FF70BD70B537
:1007600004460D4629462046FFF77EFF70BD70B552
:1007700004460D4629462046FFF780FF70BD10B5A0
:1007800004462046FFF784FF10BD70B504460D46B1
:100790001646324629462046FFF785FF70BD70B5E4
:1007A00004460D461646324629462046FFF796FF78
:1007B00070BD10B503460C4621461846FFF7B9FF39
:1007C00010BD2DE9F04107460D4616463846FFF7A5
:1007D000E9FE04463CB11EB120692843206102E0D5
:1007E0002069A8432061BDE8F0812DE9F0418046F1
:1007F0000E4615461F464046FFF7EEFE04468CB1F6
:1008000047B11EB16088284360800BE020882843F0
:10081000208007E01EB16088A843608002E0208845
:10082000A8432080BDE8F0812DE9F04180460E46C6
:1008300015461F464046FFF7CFFE04468CB147B130
:100840001EB1608A284360820BE0208A2843208200
:1008500007E01EB1608AA843608202E0208AA843B4
:100860002082BDE8F0812DE9F04107460E4614468E
:100870003846FFF7B1FE05461DB10EB16C8300E0AE
:100880002C83BDE8F0812DE9F04107460E46144661
:100890003846FFF7A1FE05461DB10EB1EC8300E01E
:1008A000AC83BDE8F08170B506460D463046FFF7D3
:1008B00093FE044624B10DB1E08A70BDA08AFCE726
:1008C0000020FAE72DE9F04180460C4616461F4607
:1008D0004046FFF79BFE05465DB12FB1032C08DCB7
:1008E000285D3043285504E0032C02DC285DB0432A
:1008F0002855BDE8F0812DE9F04180460C461646AA
:100900001F464046FFF782FE05469DB14FB1032CBE
:1009100010DC05F11000005D304305F110010855B1
:1009200008E0032C06DC05F11000005DB04305F182
:1009300010010855BDE8F0812DE9F04107460C464D
:1009400015463846FFF762FE064626B1032C02DC48
:1009500006F118000555BDE8F0812DE9F041074684
:100960000C4615463846FFF751FE064626B1032CC5
:1009700002DC06F11C000555BDE8F08170B50646A5
:100980000C463046FFF742FE0546DDB1032C19DC6C
:1009900005F11400005D70BD00C009209080024088
:1009A000B080024094800240B480024084800240C3
:1009B000A480024088800240A88002408C800240CF
:1009C000AC8002400020E6E7F0B504460B46154631
:1009D000194660003B4A102901D31039401C52F8D7
:1009E00020604FEA410C032707FA0CF7BE4342F898
:1009F000206052F820604F0005FA07F73E4342F8A6
:100A00002060F0BDF0B504460B461546194660005F
:100A10002C4A4032102901D31039401C52F8206072
:100A20004FEA410C032707FA0CF7BE4342F8206057
:100A300052F820604F0005FA07F73E4342F8206065
:100A4000F0BD30B50B461F496831012A07D151F876
:100A5000204001259D402C4341F8204006E051F8FC
:100A6000204001259D40AC4341F8204030BD012885
:100A700006D11449896A41F00801124A916206E0E0
:100A800028B91049896A21F008010E4A916270471D
:100A9000012800D1052201B90A220A4BDA67704702
:100AA00010B50446A27861782078FFF78DFFE278D0
:100AB00061782078FFF7A6FF227961782078FFF728
:100AC000C0FF10BD00C0024070B5054635B1012D14
:100AD00009D0022D0CD0032D14D10EE00220FFF717
:100AE000AAFB04460EE00420FFF7A5FB044609E03C
:100AF0002C20FFF7A0FB044604E02E20FFF79BFB11
:100B0000044600BF00BF204670BD2DE9F047814676
:100B10000C464846FFF7D8FF002605460023294625
:100B2000A1FB047C06FB04C205FB0321FB4A3846FB
:100B300002F002FD05462846BDE8F08701464FF069
:100B4000FF30B1F1402F01D100200DE0F44A914275
:100B500001D1012008E0F34A914201D1022003E0D3
:100B6000F14A914200D10320704770B505460C460A
:100B7000B5F1402F08D0EA48854205D0E9488542C2
:100B800002D0E948854200D103E0A621E7A001F0A8
:100B9000EDFC4CB1012C07D0022C05D0032C03D066
:100BA000042C01D0052C00D103E0A721DFA001F027
:100BB000DDFC28680121A1400840C6B20EB1012029
:100BC00070BD0020FCE770B505460C46B5F1402F1E
:100BD00008D0D348854205D0D248854202D0D248B9
:100BE000854200D103E0C421D0A001F0BFFC4CB18C
:100BF000012C07D0022C05D0032C03D0042C01D0EB
:100C0000052C00D103E0C521C8A001F0AFFC286885
:100C1000211D01228A401040C6B20EB1012070BDD4
:100C20000020FCE770B505460C46B5F1402F08D012
:100C3000BB48854205D0BB48854202D0BA488542B0
:100C400000D103E0DD21B9A001F090FC4CB1012CF2
:100C500007D0022C05D0032C03D0042C01D0052C86
:100C600000D103E0DE21B1A001F080FC0120A04012
:100C7000286070BD70B505460C46B5F1402F08D010
:100C8000A748854205D0A748854202D0A64885429C
:100C900000D103E0F421A5A001F068FC4CB1012CC7
:100CA00007D0022C05D0032C03D0042C01D0052C36
:100CB00000D103E0F5219DA001F058FC201D012189
:100CC0008140296070BD20B90A460123137053602A
:100CD00003E00A460023537000BF70472DE9F04738
:100CE00004460D461646B4F1402F08D08C48844285
:100CF00005D08C48844202D08B48844200D104E065
:100D000040F22B1189A001F031FC1DB1012D01D061
:100D100000D000D104E04FF4967184A001F026FCCD
:100D2000B4F1402F08D101210220FFF7A1FA0021E0
:100D30000220FFF73BFA22E07948844208D10121E2
:100D40000420FFF795FA00210420FFF72FFA16E0A0
:100D50007448844208D101218805FFF789FA0021EF
:100D60002C20FFF723FA0AE06F48844207D10121C3
:100D7000C805FFF77DFA00212E20FFF717FAA06AB9
:100D800020F00300A062A06AA0620020A0602061A1
:100D9000E060606840F002006060606820F002007F
:100DA000606085B93746387818B97868401EE060C9
:100DB00017E02046FFF7C2FE81467968FFF7A5FEDF
:100DC000401EE0600DE0B046A06A20F00C00A0627A
:100DD000464698F80100012803D1A06A40F00400BB
:100DE000A0624FF0FF302060BDE8F08710B50446E8
:100DF000B4F1402F08D04A48844205D04948844283
:100E000002D04948844200D104E040F2791147A061
:100E100001F0ACFB00206060B4F1402F04D1002150
:100E20000220FFF725FA18E03D48844204D1002152
:100E30000420FFF71DFA10E03A48844205D1002152
:100E40004FF48000FFF714FA07E03748844204D1DA
:100E500000214FF48000FFF70BFA10BD70B5044677
:100E60000D46B4F1402F08D02D48844205D02D48BE
:100E7000844202D02C48844200D104E04FF4CD716A
:100E80002AA001F073FB012D04D1606840F001003D
:100E9000606003E0606820F00100606070BD10B524
:100EA0000446B4F1402F08D01D48844205D01D48A7
:100EB000844202D01C48844200D104E04FF4D9712E
:100EC0001AA001F053FB606840F0020060606068A7
:100ED00020F00200606010BD70B504460D46B4F10C
:100EE000402F08D00E48844205D00E48844202D0DC
:100EF0000D48844200D104E040F2D1110BA001F072
:100F000035FB287940B12879012805D028790228B5
:100F100002D02879032829D12EE0000040420F009A
:100F20000080004000000940004009402E2E5C4C2B
:100F300069627261726965735C4C4350313736384F
:100F40005F5374645065726970685F447269766556
:100F5000725C736F757263655C6C7063313778783F
:100F60005F74696D65722E63000000004FF4E971D3
:100F7000AFF2480001F0FAFA287830B1012807D022
:100F8000022808D003280CD108E0A868A0610AE074
:100F9000A868E06107E0A868206204E0A8686062D1
:100FA00001E000BFFEE700BF6069297801EB410264
:100FB0000721914088436061687838B16069297879
:100FC00001EB41020121914008436061E87840B1A2
:100FD0006069297801EB4101491C01228A401043D4
:100FE0006061A87840B16069297801EB4101891CF2
:100FF00001228A4010436061E06B2978042202EBF1
:101000004102032191408843E063287900F0030006
:101010002978042202EB41018840E16B0843E06338
:1010200070BD70B504460E461546B4F1402F08D089
:101030004348844205D04348844202D04248844217
:1010400000D105E040F20721AFF2201001F08EFA46
:1010500036B1012E06D0022E06D0032E08D105E0AF
:10106000A56107E0E56105E0256203E0656201E056
:1010700000BFFEE700BF70BD70B504460D46B4F179
:10108000402F08D02E48844205D02E48844202D0FA
:101090002D48844200D105E040F22D21AFF27410BA
:1010A00001F064FAA06A297801EB4102072191401E
:1010B0008843A062687838B1A06A297801EB4102C0
:1010C000012191400843A062A87840B1A06A297824
:1010D00001EB4101491C01228A401043A062E878DB
:1010E00040B1A06A297801EB4101891C01228A40A4
:1010F0001043A06270BD70B504460D46B4F1402F98
:1011000008D00F48844205D00E48844202D00E48D1
:10111000844200D105E04FF41271AFF2F01001F0FB
:1011200025FA0DB1012D00D105E040F24921AFF2C1
:10113000042001F01BFA0DB9E06A70BD206BFCE7DA
:101140000080004000000940004009402DE9F047C0
:1011500004468846F648844202D0F648844200D1CC
:1011600003E04321F4A001F001FAF148844204D1E4
:101170002A20FFF760F8074609E0EE48844204D1D0
:101180001420FFF758F8074601E0BDE8F087002576
:101190004FF0FF3902260AE0681C7043B7FBF0F9F4
:1011A000C14504D96D1CFF2D01D90025B61CC145D0
:1011B000F2D82068C0B2206020684FF6FF7101EAC3
:1011C000052108432060F0B2206100BFDDE770B563
:1011D00004460D46D648844202D0D648844200D107
:1011E00003E08121D4A001F0C1F9D148844204D1A7
:1011F00001214805FFF73CF808E0CE48844204D1BD
:1012000001210015FFF734F800E070BDA888298996
:101210000843298A08432988084386B22660287B28
:1012200000F00F06666020466969FFF78FFF00BF78
:10123000EBE710B50446BE48844202D0BD48844264
:1012400000D103E0A821BCA001F090F9B848844285
:1012500005D100214FF40010FFF70AF806E0B54869
:10126000844203D100210015FFF702F810BD10B52C
:101270000446AF48844202D0AE48844200D103E025
:10128000C021ADA001F072F9206800F00F0010BD80
:10129000002141608160B74941610721016000215F
:1012A000C1600161704770B504460D46A048844294
:1012B00002D0A048844200D103E0E5219EA001F0C5
:1012C00055F90DB1012D00D103E0E6219AA001F0FE
:1012D0004DF9012D04D1606840F00200606003E028
:1012E000606800F00D00606070BD70B504460D468A
:1012F0008F48844202D08F48844200D103E0FE210F
:101300008DA001F033F90DB1012D00D103E0FF21D3
:1013100089A001F02BF9012D04D1606840F0010093
:10132000606003E0606800F00E00606070BD70B542
:1013300004460D467E48844202D07E48844200D155
:1013400004E04FF48D717CA001F010F90DB1012D76
:1013500000D104E040F21B1177A001F007F9012D44
:1013600004D1606800F00700606003E0606840F04E
:101370000800606070BD70B504460D466C4884423C
:1013800002D06C48844200D104E04FF49A716AA004
:1013900001F0ECF8A8B2A06070BD10B50446644836
:1013A000844202D06348844200D104E04FF4A27129
:1013B00061A001F0DBF8A06880B210BD2DE9F74F05
:1013C00082B006460C460020E0606060606103E089
:1013D0003046FFF7E2FF0746F06810F0040FF7D140
:1013E000032030623046FFF742FF082801DD012567
:1013F00000E00025049800287AD125B9D4F8089097
:10140000D4F800A003E0D4F808B02068019060E0B0
:10141000F06810F0020F2ED02169606888422AD04F
:10142000206888B93DB9FF213046FFF7A4FF606806
:10143000401C60601FE04FF6FF713046FFF79BFFD6
:101440006068801C606016E055B99AF8001030465C
:10145000FFF791FF0AF1010A6068401C60600AE032
:10146000019801883046FFF786FF0198801C0190A3
:101470006068801C6060D6F8188018F0010F07D0F3
:1014800048F4007060614FF0FF3005B0BDE8F08FA8
:1014900017E03046FFF781FF0746A06848B125B93D
:1014A00089F8007009F1010903E0ABF800700BF155
:1014B000020B1DB9E068401CE06002E0E068801C9F
:1014C000E060F06810F0040F03D0D4E90301884213
:1014D000DFD12169606888429AD1D4E9030188424A
:1014E00096D14FF480706061206810B16068CCE7DD
:1014F00005E0A06808B1E068C7E70020C5E70498E8
:1015000001287DD176E0206888B93DB9FF213046B9
:10151000FFF731FF6068401C606041E04FF6FF71EB
:101520003046FFF728FF6068801C606038E023E0E9
:1015300000800840000003402E2E5C4C69627261FE
:10154000726965735C4C4350313736385F5374644D
:101550005065726970685F4472697665725C736F1A
:10156000757263655C6C7063313778785F73737024
:101570002E63000040420F004DB9D4E90002815CA7
:101580003046FFF7F8FE6068401C606008E0D4E970
:101590000002815A3046FFF7EEFE6068801C6060F2
:1015A000D6F8188018F0010F05D048F4007060617B
:1015B0004FF0FF3069E715E03046FFF7EEFE0746D3
:1015C000A06838B11DB9D4E902128F5402E0D4E901
:1015D00002128F521DB9E068401CE06002E0E06832
:1015E000801CE060F06810F0040F03D0D4E9030120
:1015F0008842E1D1F06810F0020F06D0216900E0C6
:1016000013E0606888427FF47EAFD4E9030188422A
:1016100003D121696068884202D00F20706102E026
:101620004FF48070606100202FE74FF0FF302CE70F
:1016300070B505460C467748854202D0764885420B
:1016400000D105E04FF40571AFF2141000F08EFFE9
:10165000012C07D0022C05D0042C03D0082C01D07B
:10166000102C00D105E040F21521AFF2341000F04B
:101670007DFFE868204201D0012070BD0020FCE71A
:1016800070B504460D4616466248844202D0624850
:10169000844200D105E04FF40B71AFF2641000F00A
:1016A00065FF012E03D160692843606104E0606931
:1016B0000F21A9430840606170BD70B505460C4616
:1016C0005448854202D05448854200D105E040F29A
:1016D0004921AFF29C1000F049FF012C05D0022CEB
:1016E00003D0042C01D0082C00D105E040F24A219F
:1016F000AFF2BC1000F03AFFA869204201D00120EF
:1017000070BD0020FCE710B504464248844202D078
:101710004148844200D105E04FF41671AFF2E81061
:1017200000F024FFA06910BD70B505460C4639488D
:10173000854202D03848854200D105E040F26D2153
:10174000AFF20C2000F012FF012C05D0022C03D0C8
:10175000042C01D0082C00D105E040F26E21AFF23C
:10176000282000F003FFE869204201D0012070BD6D
:101770000020FCE770B504460D462648844202D09E
:101780002548844200D105E040F28121AFF2582083
:1017900000F0ECFE012D01D0022D00D105E040F259
:1017A0008221AFF26C2000F0E1FE256270BD70B5C1
:1017B00004460D4616461748844202D01648844215
:1017C00000D105E040F29721AFF2942000F0CEFE68
:1017D000022D01D0012D00D105E04FF42671AFF2AA
:1017E000A82000F0C3FE0EB1012E00D105E040F2AA
:1017F0009921AFF2BC2000F0B9FE012E03D1606A3E
:101800002843606204E0606A0321A94308406062E3
:1018100070BD000000800840000003400146F84809
:10182000814201D100207047F648814201D1012058
:10183000F9E7F548814201D10220F4E74FF0FF308B
:10184000F1E70146202008600820886100BF086891
:1018500010F0080FFBD020208861486800F0F800E5
:101860007047016811F0200F01D020218161102103
:1018700001600821816170470246106810F0200F56
:1018800001D020209061C8B290600820906100BF14
:10189000106810F0080FFBD0506800F0F800704797
:1018A0000346012A02D10420186001E00420986157
:1018B0000820986100BF186810F0080FFBD09868E6
:1018C0000870586800F0F800704770B504460E467E
:1018D000CB48844205D0CB48844202D0CA488442D7
:1018E00000D103E0E021C9A000F040FEC4488442DA
:1018F00005D10E20FEF79FFCB0FBF6F510E0C148C5
:10190000844205D12620FEF796FCB0FBF6F507E0F1
:10191000BD48844204D13420FEF78DFCB0FBF6F5BF
:10192000680820612069281A606170BD70B504469E
:101930000D46B348844205D0B248844202D0B24832
:10194000844200D104E04FF48471B0A000F00EFE98
:10195000AB48844208D101218020FEF789FC022196
:101960000E20FEF723FC18E0A648844208D101218E
:10197000C804FEF77DFC02212620FEF717FC0CE0D0
:10198000A148844208D101218806FEF771FC02219A
:101990003420FEF70BFC00E070BD29462046FFF71F
:1019A00094FF6420A06100BFF6E710B50446944898
:1019B000844205D09348844202D09348844200D1A7
:1019C00004E04FF49C7191A000F0D0FD4020A06194
:1019D0008B48844204D100218020FEF749FC10E0AE
:1019E0008848844205D100214FF40020FEF740FCD6
:1019F00007E08548844204D100214FF08060FEF763
:101A000037FC10BD70B504460D460DB1012D00D157
:101A100004E040F259117DA000F0A8FD784884420E
:101A200005D07848844202D07748844200D104E04F
:101A30004FF4AD7175A000F099FD012D02D1402049
:101A4000206001E04020A06170BD70B504460D46E5
:101A5000A5B16B48844203D10A2000F088FC21E044
:101A60006848844203D10B2000F081FC1AE06648EC
:101A7000844217D10C2000F07AFC13E060488442C5
:101A800003D10A2000F07FFC0CE05E48844203D1C1
:101A90000B2000F078FC05E05B48844202D10C206A
:101AA00000F071FC70BD2DE9F04105462846FFF7B6
:101AB000B5FE0646644850F83640686800F0F807FE
:101AC0006762F82F03D10820A861BDE8F0815E4865
:101AD00000EBC6004068002857D1202F48D006DC14
:101AE000082F0BD0102F0AD0182F4CD115E0282F1B
:101AF00014D0302F3DD0382F45D13FE000BF2020FB
:101B0000A861606838B1A06828B120684000A8606A
:101B10000820A86100E012E036E000BFD4E902101E
:101B200088420BD2606848B1E1686068405CA86098
:101B3000E068401CE0600820A86118E000BF0120B8
:101B4000414901EBC6014860606958B1206948B15C
:101B5000A06830B1606820B1202028600C20A86106
:101B600005E031E0606A40F480606062B6E00BE05E
:101B700000BF606A40F400706062A0E0606A40F4F8
:101B80008070606200BF9AE0B5E02F4800EBC600AD
:101B900040680128F8D1402F24D006DC082F0BD054
:101BA000102F0AD0382F7DD183E0482F7CD0502FC2
:101BB0004CD0582F76D163E000BF2020A861206967
:101BC00050B1606940B100BF0121206801EB4000C5
:101BD000A8600820A86104E0606A40F48060606248
:101BE0007CE087E0D4E90501401E814202D2042056
:101BF000286001E00420A8610820A8617AE00000C4
:101C000000C0014000C0054000000A402E2E5C4C80
:101C100069627261726965735C4C43503137363862
:101C20005F5374645065726970685F447269766569
:101C3000725C736F757263655C6C70633137787852
:101C40005F6932632E63000014000010206950B1F8
:101C5000D4E90510884206D2A868A269216988548F
:101C6000A069401CA061D4E90501401E814202D256
:101C70000420286001E00420A8610820A86139E060
:101C8000206950B1D4E90510884206D2A868A2693B
:101C900021698854A069401CA061606A40F480609A
:101CA00060621BE00AE0FFE7606A40F40070606277
:101CB00005E0606A40F48070606200BF00BFD4E954
:101CC0000710884209D20020E060202028600C2004
:101CD000A861206A401C20620BE000BF002128465A
:101CE000FFF7B3FE2846FFF7BCFD0120FE4941F88F
:101CF000260000BF00BF00BFE7E62DE9F041044623
:101D00002046FFF78BFD8046F84850F83850606851
:101D100000F0F806AE61F82E03D10820A061BDE8FE
:101D2000F08116F0070F68D1F0100C38142864D237
:101D3000DFE800F00F631063152816292C4763486D
:101D40005A6363636363630A042020600820A06110
:101D50005FE000BF042020600820A06159E000BFC0
:101D6000D5E90410884208D2E86830B1A0686A69F1
:101D7000E96888546869401C686104202060082074
:101D8000A06146E000BF0820A06142E0002120469B
:101D9000FFF75BFE0820A06147030FE0206810F00A
:101DA000080F04D001212046FFF74FFE07E07F1EF9
:101DB00027B9A86940F48060A8611FE0EEE700BF82
:101DC00027E000BFD5E90110884208D2286830B169
:101DD000A9682868405CA060A868401CA86004202E
:101DE00020600820A06114E0042020600820A06189
:101DF000A86940F48060A86100E000BF002120468F
:101E0000FFF723FE2C20A0610120B94941F82800EA
:101E100000BF00BF00BF82E72DE9F84306460C462D
:101E20001746D4F80480D4F810900020E060A06138
:101E30006062002F7ED1206200BFD4F80480D4F805
:101E400010900020E060A06100253046FFF7F9FC0B
:101E50000546082D0BD0102D09D0206A401C2062A9
:101E6000D4E90710884201D96562ABE0E5E7A068D4
:101E7000A0B3606890B320784006010E3046FFF7AB
:101E8000FBFC0546182D0BD0206A401C2062D4E9CB
:101E90000710884203D945F40070606292E0CCE7F5
:101EA00018E098F800103046FFF7E6FC0546282DAC
:101EB0000BD0206A401C2062D4E90710884203D965
:101EC00045F4007060627DE0B7E708F10108E06862
:101ED000401CE060D4E902108842E2D3A068B8B1A7
:101EE0006068A8B1606998B1206988B13046FFF791
:101EF000A8FC0546082D0BD0102D09D0206A401CE7
:101F00002062D4E90710884201D965625AE094E75B
:101F10006069002850D0206900284DD02078012227
:101F200002EB4000C1B23046FFF7A6FC0546402D4B
:101F30000DD000E04BE0206A401C2062D4E907107D
:101F4000884203D945F4007060623BE075E72FE0FA
:101F5000D4E90501401E814211D201226946304672
:101F6000FFF79EFC0546502D1BD0206A401C2062C6
:101F7000D4E90710884201D9656223E05DE70022B9
:101F800069463046FFF78CFC0546582D09D0206A7B
:101F9000401C2062D4E90710884201D9656211E033
:101FA0004BE79DF8000009F8010BA069401CA061F7
:101FB000D4E905108842CBD33046FFF752FC01200C
:101FC000BDE8F8833046FFF74CFC0020F8E7012F0E
:101FD0001AD13046FFF722FCC0B2009043489DF86A
:101FE000001040F83140002040499DF8002001EBEE
:101FF000C20148600820B0612020306001213046D5
:10200000FFF723FD0120DBE70020D9E72DE9F84F9A
:1020100004460D461646D5F80090D5F80CA00020D1
:10202000A8606861A861002E5DD10420206028208E
:10203000A06100200090834672E0206810F0080F35
:1020400065D000200090606800F0F80717F0070FD7
:1020500059D1F8100C38142855D2DFE800F00F548D
:102060001054152716282B3254334B5454545454BF
:10207000540A042020600820A06147E000BF04202B
:1020800020600820A06141E000BFD5E9041088422B
:1020900007D2E86828B1A0680AF8010B6869401CFB
:1020A0006861042020600820A0612FE000BF0820A4
:1020B000A0612BE00820A061012000904FF0000BF0
:1020C00024E000BFD5E90110884207D2286828B172
:1020D00019F8010BA060A868401CA86004202060CB
:1020E0000820A06112E029E02C000010140000106C
:1020F00038000010042020600820A061012000901A
:102100004FF0000B02E00820A06112E008E0009808
:1021100030B158460BF1010BB0F5803F00D900E01B
:102120008BE70420A06147F48060A8610120BDE82E
:10213000F88F0420A061AF610020F8E7012E15D1CF
:102140002046FFF76BFB8046934840F8385001204B
:10215000914901EBC8014860042020602820A0615B
:1021600001212046FFF771FC0120E0E70020DEE7B7
:1021700070B504460D468948844205D0884884429B
:1021800002D08848844200D105E040F2A141AFF27C
:10219000845000F0EBF92878002803DB2878032826
:1021A00000DC05E040F2A241AFF2A05000F0DEF901
:1021B000A87810B1A878012800D105E040F2A34129
:1021C000AFF2B85000F0D2F9A878012800D100E0B1
:1021D0000020697840EA4100C6B2287830B1012871
:1021E0000AD002280ED0032818D111E0E660E87862
:1021F00000F0FE00206311E02662E87800F0FE00A7
:1022000060630BE06662E87800F0FE00A06305E022
:10221000A662E87800F0FE00E06300BF00BF70BD7A
:1022200070B504460D4616465C48844205D05C48AD
:10223000844202D05B48844200D105E040F2D5419F
:10224000AFF2386000F092F9022D00D000BF00BF5D
:102250000EB1012E00D105E040F2D741AFF254603B
:1022600000F084F9012E03D1E0692843E06104E025
:10227000E0690721A9430840E06170BD70B50446DC
:102280000D464648844205D04548844202D0454820
:10229000844200D105E040F2F141AFF2906000F0DD
:1022A00065F90DB1012D00D105E040F2F241AFF228
:1022B000A46000F05BF9012D08D1E06940F0010055
:1022C000E061042020602820A06105E0E06900F0C2
:1022D0000600E0612C20A06100203349086070BD39
:1022E00010B504462D48844205D02D48844202D0C2
:1022F0002C48844200D105E040F21451AFF2F46062
:1023000000F034F9E06AC0B210BD30B503460020D9
:1023100008249C61DC6A244D2D684C55224C2468AD
:10232000641C214D2C602C462468944200D301206B
:1023300030BD70B505462846FFF770FA04461B48C5
:1023400050F824600020194941F82400304670BD3F
:1023500070B505462846FFF761FA0446144850F860
:1023600024600020124941F82400304670BD00F07E
:102370001F020121914042094FF0E02303EB82024A
:10238000C2F80011704700F01F0201219140094A74
:10239000430942F8231070471400001000C00140A8
:1023A00000C0054000000A40040000102C0000108E
:1023B0003800001080E100E01CB500208DF800001E
:1023C0001B208DF8010001208DF802006846FEF701
:1023D00067FB00208DF800001C208DF80100012013
:1023E0008DF802006846FEF75BFB1CBD1CB50220A1
:1023F0008DF800000A208DF8010000208DF8020001
:102400006846FEF74DFB02208DF800000B208DF88A
:10241000010000208DF802006846FEF741FB1CBD5C
:1024200010B5FFF7C9FFFFF7E1FF10BD10B5504928
:102430005048FFF77BFA01214E48FFF7E3FA10BD41
:10244000F0B58BB004460D461646009401950296F1
:1024500000200490089000273A4669464548FFF757
:10246000DBFC0BB0F0BDF0B58DB004460D46164652
:1024700041A000680190029401A8039001200490FB
:102480000695079600200A9000273A4602A9394887
:10249000FFF7C2FC0DB0F0BD00B585B000208DF88F
:1024A000080001208DF8090000208DF80A000120A5
:1024B0008DF80B0003208DF80C006420049040F68A
:1024C000C410019001208DF8000002A94FF04020B7
:1024D000FEF702FD6A4600214FF04020FEF7FEFBAA
:1024E00001214FF04020FEF7B9FC05B000BD08B552
:1024F00022480068012812D12148028821A12348DE
:1025000001F092F81F2047F6FF73204A1421009033
:10251000084600F008FE0020184908600EE0184840
:10252000028818A1194801F07FF81F2047F6FF73B1
:10253000164A14210090084600F0F5FD00214FF0E6
:102540004020FEF76FFB08BD00F043F900F052FE9B
:10255000FFF7A2FF0E48006840F002004FF0E021B4
:10256000C1F8000101E000F046FFFCE700BFFEE714
:1025700020A1070000C00140010000000800001079
:102580000C000010583A202530346400440000103C
:1025900000E100E0000200BF0100A0F10100FBD15A
:1025A000704710B501224FF470010020FEF7CDF8FE
:1025B00001224FF060711046FEF7C7F84FF470012A
:1025C0000020FEF7CCF84FF060710120FEF7C7F84D
:1025D00010BD10B5222001F057FA10BD10B5044609
:1025E0004FF48000FE49C86180108861204601F0E8
:1025F000EDF94FF40000FA49C861012001F03AFA00
:102600004FF40000F64988614010886110BDF5481C
:102610000088704730B5014601F01F04C1F345132F
:10262000CA0AE50205EB43151544A8B230BD70B5E2
:1026300004460D46EB480088A0F50941893907D1C9
:10264000A1B24E2001F040FAA9B24F2001F03CFAAD
:10265000A1B2202001F038FAA9B2212001F034FA09
:1026600070BD70B504460D4629462046FFF7DFFFD2
:10267000FFF7AFFF01F0C0F9064601F0BDF90646CD
:10268000304670BD70B50546002400210846FFF7AE
:10269000CEFFFFF79EFF00BF03E02846FFF79EFF37
:1026A000641CB4F5963FF8D370BD10B5CD480088D2
:1026B000A0F50941893905D146F23001112001F018
:1026C00003FA04E041F23001032001F0FDF900219A
:1026D0000846FFF7ACFFFFF77CFF45F25550FFF7C8
:1026E0007DFF4AF6AA20FFF779FF00210846FFF791
:1026F0009EFF10BD2DE9F041BA480088A0F50941C0
:10270000893904D041F23001032001F0DDF90025C0
:1027100000210846FFF78BFFFFF75BFF002405E071
:102720002846FFF75BFF681C85B2641CB4F5963F32
:10273000F6D30025AB480088A0F5134120390BD013
:10274000A8480088A0F51341253905D0A548008880
:10275000A0F51341283919D1002413E000260EE01A
:1027600021463046FFF77DFF0746FFF753FF294616
:102770006A1C95B2884201D0BDE8F081761CF02E2B
:10278000EED3641CB4F5A07FE8D320E09548008820
:10279000A0F58A41313905D092480088A0F5094159
:1027A000893914D100240FE000260AE02146304682
:1027B000FFF757FF29466A1C95B2884200D0DBE735
:1027C000761CF02EF2D3641CB4F5A07FECD300BFCE
:1027D000D2E770B5FFF7E5FE40F2DC50FFF7DAFE16
:1027E0000024204601F050F901F006F9054600BF2B
:1027F0007C4805800088A0F58A41313923D079488A
:102800000088A0F5EE4183391DD076480088A0F5F8
:102810001341203917D073480088A0F5134125399A
:1028200011D070480088A0F5134128390BD06D48AD
:102830000088B0F5134F06D06A480088A0F509411A
:10284000893900D070BD67480088A0F5134125394B
:1028500005D064480088A0F5134128397DD11021A6
:10286000E72001F031F90121002001F02DF94FF4AA
:102870008071012001F028F94FF4E061022001F09D
:1028800023F941F22801032001F01EF90021042060
:1028900001F01AF940F20721082001F015F9002192
:1028A000092001F011F900210A2001F00DF90121A0
:1028B0000C2001F009F900210D2001F005F900219B
:1028C0000F2001F001F90021102001F0FDF807218F
:1028D000112001F0F9F80021122001F0F5F8002193
:1028E000132001F0F1F80F20FFF754FE41F2905150
:1028F000102001F0E9F840F22721112001F0E4F85E
:102900000F20FFF747FE9C21122001F0DDF80F2079
:10291000FFF740FE4FF4C851132001F0D5F82321F2
:10292000292001F0D1F80E212B2001F0CDF80F2045
:10293000FFF730FE0021202001F0C6F80021212001
:1029400001F0C2F80F20FFF725FE0721302001F02B
:10295000BBF840F20771312000E08AE001F0B4F8E2
:102960000621322001F0B0F840F20471352001F068
:10297000ABF841F60471362001F0A6F804213720A7
:1029800001F0A2F80021382001F09EF840F2067113
:10299000392001F099F840F201713C2001F094F8DF
:1029A0000F213D2001F090F80F20FFF7F3FD0021EB
:1029B000502001F089F8EF21512001F085F8002125
:1029C000522001F081F840F23F11532001F07CF8D1
:1029D0004FF42741602001F077F80121612003E0E6
:1029E00000C009201000001001F06EF800216A20DC
:1029F00001F06AF80021802001F066F800218120B2
:102A000001F062F80021822001F05EF800218320AD
:102A100001F05AF80021842001F056F800218520A9
:102A200001F052F81021902001F04EF80021922080
:102A300001F04AF80321932001F046F84FF4887121
:102A4000952001F041F80021972001F03DF8002188
:102A5000982001F039F840F23311072001F034F8E2
:102A60000021202001F030F80021212001F02CF875
:102A700012E3FC480088A0F51341203904D0F9483E
:102A80000088B0F5134F7DD10021084601F01CF8F5
:102A90000021012001F018F84FF4E061022001F05C
:102AA00013F841F21801032001F00EF80021042070
:102AB00001F00AF840F20221082001F005F8002197
:102AC000092001F001F800210A2000F0FDFF01219A
:102AD0000C2000F0F9FF00210D2000F0F5FF00218F
:102AE0000F2000F0F1FF0F20FFF754FD40F201111D
:102AF000072000F0E9FF0F20FFF74CFD4FF486514F
:102B0000102000F0E1FF0721112000F0DDFF4FF45D
:102B10008871122000F0D8FF4FF43061132000F0CC
:102B2000D3FF0021292000F0CFFF44F210012B2019
:102B300000F0CAFF0021502000F0C6FFEF21512015
:102B400000F0C2FF0021522000F0BEFF40F23F1112
:102B5000532000F0B9FF4FF42741602000F0B4FF8C
:102B60000121612000F0B0FF00216A2000F0ACFFDD
:102B70000021802000F0A8FF0021812000F0A4FFA8
:102B8000002100E02DE0822000F09EFF0021832044
:102B900000F09AFF0021842000F096FF002185209C
:102BA00000F092FF1021902000F08EFF0021922073
:102BB00000F08AFF0121932000F086FF4FF4887116
:102BC000952000F081FF0021972000F07DFF00217B
:102BD000982000F079FF40F27311072000F074FF95
:102BE0005AE2A0480088A0F58A4131397DD10121FF
:102BF000002000F069FF4FF4C561102000F064FF71
:102C00000621122000F060FF40F63221132000F070
:102C10005BFF4021112000F057FF5021152000F0EC
:102C200053FF1621122000F04FFF0F20FFF7B2FCD8
:102C300045F26061102000F047FF0F20FFF7AAFC6B
:102C400042F64E21132000F03FFF0021012000F04A
:102C50003BFF4FF44071022000F036FF41F230019B
:102C6000032000F031FF40F20221082000F02CFF89
:102C700000210A2000F028FF0021302000F024FF6E
:102C800040F20241312000F01FFF4FF483713220E7
:102C900000F01AFF4FF4E061332000F015FF4FF40D
:102CA0008271342000F010FF40F20131352000F035
:102CB0000BFF40F20771362000F006FF40F20531AD
:102CC000372000F001FF4FF40271382000F0FCFEC5
:102CD00040F60B71392000F0F7FE0F20FFF75AFC89
:102CE0000221412000F0F0FE00E037E04FF42741E0
:102CF000602000F0E9FE0121612000F0E5FE40F2D5
:102D00001911902000F0E0FE4FF48571922000F040
:102D1000DBFE0421932000F0D7FE4FF48071A02049
:102D200000F0D2FE0F20FFF735FC0F20FFF732FC3A
:102D30000F20FFF72FFC0F20FFF72CFC40F2331180
:102D4000072000F0C1FE0F20FFF724FC0021A02087
:102D500000F0BAFE1420FFF71DFC9DE141480088F9
:102D6000A0F5EE4183397CD10121FF2000F0ACFEBB
:102D70000821F32000F0A8FE4FF48071012000F03C
:102D8000A3FE4FF4E061022000F09EFE41F230010C
:102D9000032000F099FE40F20231082000F094FE7A
:102DA00040F20721082000F08FFE0021092000F0EA
:102DB0008BFE00210A2000F087FE0021102000F089
:102DC00083FE0521112000F07FFE0021122000F07B
:102DD0007BFE0021132000F077FE1420FFF7DAFBC2
:102DE00041F2B021102000F06FFE1420FFF7D2FB5B
:102DF0000721112000F068FE1420FFF7CBFB8B2188
:102E0000122000F061FE1420FFF7C4FB4FF4B8510C
:102E1000132000F059FE1420FFF7BCFB22212920CB
:102E200000F052FE0021302000F04EFE40F207710B
:102E3000312000F049FE40F20551322000F044FEFE
:102E400040F20711352000F03FFE0821362000F047
:102E50003BFE0021372000F037FE40F202213820EF
:102E600002E040E01000001000F02EFE4FF48371ED
:102E7000392000F029FE40F202213C2000F024FE1F
:102E80004FF481613D2000F01FFE1420FFF782FB0C
:102E90000021502000F018FEEF21512000F014FE18
:102EA0000021522000F010FE40F23F11532000F0AC
:102EB0000BFE4FF42741602000F006FE0121612047
:102EC00000F002FE3321902000F0FEFD0B212B20AC
:102ED00000F0FAFD40F23311072000F0F5FD142058
:102EE000FFF758FBD8E071480088A0F509418939FF
:102EF000F8D12121072000F0E7FD0121002000F09A
:102F0000E3FD2321072000F0DFFD0021102000F069
:102F1000DBFD40F6B830FFF73DFB3321072000F022
:102F2000D3FD46F27001112000F0CEFD4FF4C061D8
:102F3000022000F0C9FD40F60401032000F0C4FDAA
:102F400000210C2000F0C0FD40F60C010D2000F027
:102F5000BBFD4FF424510E2000F0B6FDB8211E2019
:102F600000F0B2FD42F63F31012000F0ADFD00213E
:102F7000102000F0A9FD0021052000F0A5FD002192
:102F8000062000F0A1FD4EF61C71162000F09CFDFD
:102F90000321172000F098FD40F23321072000F0B4
:102FA00093FDC0210B2000F08FFD00210F2000F0C9
:102FB0008BFD0021412000F087FD0021422000F020
:102FC00083FD0021482000F07FFD40F23F114920A1
:102FD00000F07AFD00214A2000F076FD00214B2010
:102FE00000F072FD4FF46F41442000F06DFD0021B0
:102FF000452000F069FD40F23F11462000F064FDDD
:1030000040F20771302000F05FFD4FF40171312074
:1030100000F05AFD4FF40171322000F055FD40F2EE
:103020000251332000F050FD40F20751342000F0EF
:103030004BFD4FF40171352000F046FD4FF4017156
:10304000362000F041FD40F20251372000F03CFDF7
:1030500040F202313A2000F037FD40F202313B20CD
:1030600000F032FD0021232000F02EFD002124205D
:1030700000F02AFD4FF40041252000F025FD00213D
:103080004F2000F021FD00214E2000F01DFDFFF734
:103090000CFB1F20FFF7F6FAFFF707FBFFF72AFBF1
:1030A0001F20FFF7EFFA00BFFFF7CCBB10000010A6
:1030B0002DE9F84F05460E46174698460095B1464D
:1030C00000242CE0A7F12000244901EB001010F8A7
:1030D00004A049460098FFF7AAFA09F101001FFA77
:1030E00080F9FFF776FA4FF0000B13E01AF0800F2B
:1030F00004D01FFA88F0FFF771FA03E00A9988B24A
:10310000FFF76CFA4FEA4A604FEA106A0BF10100D0
:1031100000F0FF0BBBF1080FE8DB601CC4B2102C01
:10312000D0DBBDE8F88F2DE9F84305460E4614467E
:103130001F46DDF820800BE0CDF8008022783B466A
:1031400031462846FFF7B4FF641C05F1080085B23C
:1031500020780028F0D1BDE8F8830000DC3A0000B8
:1031600011B581B00120EB49086101A80860002277
:10317000E948FEF723F9C4B22CB1E649C1F808D0FA
:103180009DF800001CBD0020FCE700B589B00020C0
:103190008DF81C0002208DF81E0000208DF81F0005
:1031A0008DF8200007208DF81D0007A8FDF778FC9A
:1031B00008208DF81D0007A8FDF772FC09208DF886
:1031C0001D0007A8FDF76CFC08200190002002906C
:1031D000039004900590D148069001A8FEF758F896
:1031E00001A9CD48FDF7F3FF0121CB48FEF75BF8BD
:1031F00009B000BD1CB500208DF802008DF8040058
:103200008DF8030013208DF8010000208DF80000D8
:103210006846FDF745FC00224FF400211046FDF7FB
:103220000FFA0122D1040020FDF73DFA01224021CE
:103230000020FDF705FA40210020FDF715FAFFF701
:10324000A4FF012240210020FDF7FAF940210020CF
:10325000FDF714FA8020FFF783FF012240210020B0
:10326000FDF7EEF940210020FDF7FEF91CBD2DE928
:10327000F04196B0B5E000243EE00122402100205C
:10328000FDF7DEF940210020FDF7F8F9D020FFF727
:1032900067FF0020FFF764FF4006000D11A921F829
:1032A00014009020FFF75CFF11A931F8141041EAD7
:1032B000E00011A921F814000020FFF751FF40069B
:1032C000000D0CA921F814000020FFF749FF0CA9FC
:1032D00031F8141041EAE0000CA921F81400802014
:1032E000FFF73EFF012240210020FDF7A9F9402110
:1032F0000020FDF7B9F9641C0A2CBED34FF6FF730A
:103300001D460026002700210022002032E00DF19A
:10331000440C3CF810C09C4503D20DF1440C3CF821
:1033200010300DF1440C3CF810C0B44503D90DF138
:10333000440C3CF810600DF1440C3CF810C06144A2
:103340000DF1300C3CF810C0AC4503D20DF1300C3F
:103350003CF810500DF1300C3CF810C0BC4503D9BE
:103360000DF1300C3CF810700DF1300C3CF810C031
:103370006244401C0A28CAD3A1EB030CACEB060143
:10338000A2EB050CACEB0702C1F3CF0CDFF8908188
:10339000A8F800C0C2F3CF0CDFF88881A8F800C0FD
:1033A0005F48028860A107A800F03EF94046028805
:1033B0005FA102A800F038F91F2047F6FF7307AAA3
:1033C0004FF4917100900020FFF7ADFE1F2047F6EB
:1033D000FF7302AA4FF4917100907820FFF7A3FECB
:1033E00000BF0020FDF754F910F4002F3FF443AF65
:1033F00016B0BDE8F0812DE9F0418AB000243BE031
:10340000012240210020FDF71BF940210020FDF79B
:1034100035F9D020FFF7A4FE0020FFF7A1FE4006FB
:10342000000D05A921F814009020FFF799FE05A9C9
:1034300031F8141041EAE00005A921F81400002039
:10344000FFF78EFE4006000D2DF814000020FFF758
:1034500087FE3DF8141041EAE0002DF814008020AA
:10346000FFF77EFE012240210020FDF7E9F8402110
:103470000020FDF7F9F8641C0A2CC1D34FF6FF7346
:103480001D460026002700210022002028E00DF123
:10349000140C3CF810C09C4503D20DF1140C3CF800
:1034A00010300DF1140C3CF810C0B44503D90DF1E7
:1034B000140C3CF810600DF1140C3CF810C0614481
:1034C0003DF810C0AC4501D23DF810503DF810C099
:1034D000BC4501D93DF810703DF810C06244401C55
:1034E0000A28D4D3A1EB030CACEB0601A2EB050C2C
:1034F000ACEB0702C1F3CF0CDFF82480A8F800C0C2
:10350000C2F3CF0CDFF81C80A8F800C00AB0BDE8F9
:10351000F08100006400001000000340801A0600E3
:103520000C0000100E000010583A202530346400C2
:10353000593A20253034640053EA020C00F06980C7
:103540002DE9F04B4FF00006002B1FBFB3FA83F5B7
:1035500003FA05F424FA05F65E4012BF1643B2FAE8
:1035600082F502FA05F4C5F120051EBF22FA05FC1A
:1035700044EA0C04203556EA044C4FEA144418BFC0
:10358000641C4FF000084FF00009904271EB030CEF
:1035900039D3002919BFB1FA81F701FA07F6B0FA59
:1035A00080F700FA07F6C7F120071EBF20FA07FCD4
:1035B00046EA0C062037B6FBF4FCA7EB0507103FE4
:1035C00007F01F0BCBF120060CFA0BFB2CFA06F6CA
:1035D00044BFB3460026202FA4BF5E464FF0000B29
:1035E0005BEA060C08BF4FF0010B19EB0B09ABFBB4
:1035F000027C48EB0608C01B06FB02CC0BFB03CC8D
:1036000071EB0C01C1E70B46024641464846BDE856
:10361000F08B13B54FF000004FF00001AFF30080C6
:10362000BDE81C40704700000FB41CB5074B06AA4C
:103630007B4469460090059800F073F900206946C4
:1036400000F082F91CBC5DF814FB000015030000BB
:1036500070B5044685690068C10601D5302600E0D2
:103660002026C00708D070BDD4E90121304690471C
:10367000206A00F1010020626D1EF5D570BD70B5A5
:10368000044685690078C00708D170BDD4E90121DE
:1036900020209047206A00F1010020626D1EF5D5C0
:1036A00070BD00002DE9F041064600241068752920
:1036B000314616A511D0AFF30080002803DAC0F11F
:1036C000000013A507E031688A0701D511A502E0C3
:1036D000490704D510A5012401E0AFF300800021C3
:1036E0000A2306F1240707E0B0FBF3F203FB120004
:1036F000303078541046491C0028F5D123462A461C
:103700003046BDE8F04100F0AAB80000000000001B
:103710002D0000002B000000200000002DE9F05FCC
:10372000894604464FF0000ADFF828B1FB44C0F890
:1037300020A02046E168884700287CD0252806D0B4
:10374000D4E901219047206A401C2062F1E700255E
:103750005F462046E16888472028064608DB312E70
:1037600006D207EB060010F8200C08B10543F0E77D
:10377000A80701D525F00405C4F81CA00027C4F84B
:1037800018A02A2E09D0304600F019F938B304EBFE
:103790008708303EC8F8186019E059F8041B204625
:1037A00004EB87029161E1688847012F064618D132
:1037B000E069002820DA25F020051DE0D8F818007F
:1037C00000EB800006EB40003038C8F818002046B7
:1037D000E1688847064600F0F2F80028EED1012F94
:1037E0000AD02E2E08D12046E16888477F1C064665
:1037F000022F45F02005C4DBA069002803DA40420F
:1038000045F00105A061E80701D025F0100596B14B
:10381000A6F14100192802D8203645F400654A4631
:103820003146204625604D46FCF78AFC60B10128F0
:1038300007D0ED1D00E009E025F0070000F10809C0
:1038400077E705F1040974E7304679E7206ABDE8B7
:10385000F09F00009C0900007047704770472DE9F9
:10386000F0470D4699469246044600F12408016847
:10387000880604D5E06921F01001216000E00120F4
:10388000A84202DDA0EB050700E00027A16907EBD5
:10389000050202EB0900A1EB0000A0612078C00640
:1038A00002D42046FFF7D4FE002608E0D4E9012127
:1038B0001AF806009047206A401C761C20624E458C
:1038C000F4DB2078C0060AD52046FFF7C1FE06E0EB
:1038D000D4E9012130209047206A401C2062381E24
:1038E000A7F10107F4DC07E0D4E9012118F805008D
:1038F0009047206A401C2062281EA5F10105F3DCD8
:103900002046FFF7BCFE2078000602D50220BDE865
:10391000F0870120FBE7000001694A1C026108787A
:10392000704700B58FB0CDE90131002105910549FF
:103930007944CDE9031011466846FFF7EFFE0FB05A
:1039400000BD0000E5FFFFFF0A6802F8010B0A60F6
:103950007047754600F028F8AE46050069465346A4
:1039600020F00700854618B020B5FCF70FFCBDE835
:1039700020404FF000064FF000074FF000084FF0D6
:10398000000B21F00701AC46ACE8C009ACE8C00967
:10399000ACE8C009ACE8C0098D4670470446AFF3F7
:1039A00000802046FCF7DEFB004870477C000010DA
:1039B00001491820ABBEFEE72600020070473038F0
:1039C0000A2801D201207047002070470949096C7C
:1039D00041F0FF01074A11644FF080719163490083
:1039E000D163114648654FF400019163D163011220
:1039F0005165704700C0092070B500254FF4800064
:103A00001A49C86180108861C00088618010C8614F
:103A1000012000F02FF800BF1448006C20F0FF00D8
:103A2000124908644FF08070C8634000C8633220B8
:103A300000F020F80E4804784FF000700B498863BE
:103A40004FF0320000F016F8084890F8540040EAB1
:103A500004244FF080700549886300BF2546C010DC
:103A6000886140008861284670BD000000C00920C0
:103A700054C0092008B5009000BF00994A1E00926A
:103A80000029FAD108BD000010B504464FF48000AB
:103A90000C49C8618010C861400088612046FFF76A
:103AA00095FF4620FFF7E6FF4FF400000549C86187
:103AB0000120FFF7DFFF4FF400000249886140104A
:103AC000886110BD00C0092070B505460C46284627
:103AD000FFF7DAFF2046FEF781FD70BD0000000011
:103AE00000000000000000000000000000000000D6
:103AF000183C3C3C1818001818000000000000009A
:103B00006666660000000000000000000000000083
:103B100036367F3636367F363600000000001818FD
:103B20003C666030180C06663C18180000000070F7
:103B3000D8DA760C18306E5B1B0E00000000000017
:103B4000386C6C38606F66663B0000000000000057
:103B5000181818000000000000000000000000001D
:103B60000C1818303030303018180C0000000000ED
:103B70003018180C0C0C0C0C181830000000000049
:103B80000000361C7F1C3600000000000000000012
:103B9000000018187E181800000000000000000047
:103BA0000000000000001C1C0C18000000000000B9
:103BB0000000007E00000000000000000000000087
:103BC0000000000000001C1C0000000000000006B7
:103BD000060C0C1818303060600000000000001E59
:103BE000333737333B3B331E000000000000000C2E
:103BF0001C7C0C0C0C0C0C0C000000000000003CA9
:103C00006666060C1830607E000000000000003C74
:103C10006666061C0666663C000000000000003078
:103C200030363636667F0606000000000000007E53
:103C30006060607C06060C78000000000000001C3C
:103C400018307C666666663C000000000000007E5E
:103C5000060C0C1818303030000000000000003C4A
:103C60006666763C6E66663C000000000000003C24
:103C7000666666663E0C1838000000000000000012
:103C8000001C1C0000001C1C0000000000000000C4
:103C9000001C1C0000001C1C0C180000000000068A
:103CA0000C18306030180C06000000000000000006
:103CB00000007E007E0000000000000000000060A8
:103CC00030180C060C183060000000000000003CAA
:103CD00066660C1818001818000000000000007E2E
:103CE000C3C3CFDBDBCFC07F0000000000000018A3
:103CF0003C6666667E666666000000000000007C2A
:103D00006666667C6666667C000000000000003C1B
:103D1000666660606066663C000000000000007837
:103D20006C66666666666C78000000000000007EC7
:103D30006060607C6060607E000000000000007ECB
:103D40006060607C60606060000000000000003C1B
:103D5000666660606E66663E0000000000000066F9
:103D60006666667E66666666000000000000003CCF
:103D7000181818181818183C0000000000001E0C35
:103D80000C0C0C0CCCCCCC780000000000000066C1
:103D9000666C6C786C6C6666000000000000006069
:103DA000606060606060607E000000000000006392
:103DB00063776B6B6B63636300000000000000635C
:103DC00063737B6F67636363000000000000003C67
:103DD000666666666666663C000000000000007C61
:103DE0006666667C60606060000000000000003C69
:103DF000666666666666663C0C0600000000007C2F
:103E00006666667C6C666666000000000000003C2A
:103E1000666030180C06663C000000000000007E62
:103E2000181818181818181800000000000000666C
:103E3000666666666666663C000000000000006616
:103E40006666666666663C18000000000000006357
:103E500063636B6B6B363636000000000000006653
:103E6000663418182C6666660000000000000066C4
:103E70006666663C18181818000000000000007EF6
:103E800006060C183060607E000000000000003C58
:103E9000303030303030303030303C0000000060A6
:103EA00060303018180C0C06060000000000003CC2
:103EB0000C0C0C0C0C0C0C0C0C0C3C0000183C6694
:103EC00000000000000000000000000000000000F2
:103ED00000000000000000000000FF000038180C87
:103EE00000000000000000000000000000000000D2
:103EF000003C06063E66663E0000000000000060D2
:103F0000607C66666666667C00000000000000005B
:103F1000003C66606060663C000000000000000637
:103F2000063E66666666663E000000000000000011
:103F3000003C66667E60603C000000000000001EE1
:103F40003030307E303030300000000000000000A3
:103F5000003E66666666663E06067C0000000060FF
:103F6000607C6666666666660000000000001818E1
:103F7000007818181818187E0000000000000C0CBB
:103F8000003C0C0C0C0C0C0C0C0C780000000060BD
:103F90006066666C786C6666000000000000007861
:103FA000181818181818187E0000000000000000EB
:103FB000007E6B6B6B6B6B63000000000000000009
:103FC000007C666666666666000000000000000011
:103FD000003C66666666663C00000000000000006B
:103FE000007C66666666667C6060600000000000BB
:103FF000003E66666666663E060606000000000035
:1040000000666E70606060600000000000000000EC
:10401000003E60603C06067C0000000000000030AE
:10402000307E30303030301E0000000000000000D4
:10403000006666666666663E0000000000000000DE
:104040000066666666663C1800000000000000001E
:1040500000636B6B6B6B36360000000000000000E5
:104060000066663C183C6666000000000000000028
:10407000006666666666663C0C18F000000000008C
:10408000007E060C1830607E000000000000000C6E
:104090001818183060301818180C000000000018AC
:1040A00018181818181818181818180000000030D8
:1040B0001818180C060C18181830000000000071B1
:1040C000DB8E00000000000000000000040000087B
:1040D00000000000000000020001000010000000CD
:1040E0000041000000000010140000000801000062
:1040F0001441000014000010CC0200002401000054
:1041000000E1F505000000000000000000000000D4
:0441100000000000AB
:04000005000000CD2A
:00000001FF
