:020000040000FA
:10000000E002001071010000790100007B01000096
:100010007D0100007F010000810100000000000060
:10002000000000000000000000000000830100004C
:100030008501000000000000870100008901000028
:100040008B010000572700008B0100008B0100008E
:100050008B0100008B0100008B0100008B01000070
:100060008B0100008B0100008B0100008B01000060
:100070008B0100008B0100008B0100008B01000050
:100080008B0100008B0100008B0100008B01000040
:100090008B0100008B0100008B0100008B01000030
:1000A0008B0100008B0100008B0100008B01000020
:1000B0008B0100008B0100008B0100008B01000010
:1000C0008B0100008B0100008B01000000F002F8A2
:1000D00000F03FF80AA090E8000C82448344AAF1A3
:1000E0000107DA4501D100F034F8AFF2090EBAE8A1
:1000F0000F0013F0010F18BFFB1A43F0010318475C
:100100009C440000BC440000103A24BF78C878C169
:10011000FAD8520724BF30C830C144BF04680C600D
:10012000704700000023002400250026103A28BF55
:1001300078C1FBD8520728BF30C148BF0B60704759
:10014000642903F00D85002070471FB51FBD10B551
:1001500010BD03F05CFE1146FFF7F7FF02F0E6FB6F
:1001600003F07AFE03B4FFF7F2FF03BC03F07EFE58
:100170000948804709480047FEE7FEE7FEE7FEE73B
:10018000FEE7FEE7FEE7FEE7FEE7FEE70448054977
:10019000034A054B7047000039040000CD00000001
:1001A000E0000010E0020010E000001010B50A4668
:1001B000202801D2034601E0A0F12003194620289F
:1001C00014D2464B1B684FF0030404FA01F423EAEF
:1001D0000403434CC4F8A831404B1B6802FA01F4F5
:1001E00043EA04033E4CC4F8A83113E03D4B1B68BE
:1001F0004FF0030404FA01F423EA0403384CC4F872
:10020000AC31384B1B6802FA01F443EA0403344C66
:10021000C4F8AC3110BD0146202903D20A462F4B49
:10022000186803E0A1F120022E4B186820FA02F3AF
:1002300003F00300704770B506462B48046830464B
:10024000FFF7E9FF054635B1012D06D0022D06D096
:10025000032D08D105E0042505E0012503E0022572
:1002600001E0082500BF00BFB4FBF5F4204670BDD7
:1002700001290AD11D4A12681D4B00EA030342EA14
:100280000302174BC3F8C4200AE049B9174A1268A1
:10029000174B23EA000302EA0302114BC3F8C42000
:1002A000704700201349086030BF7047042012498E
:1002B000086008200F49086030BF704704200E49CD
:1002C000086009200B49086030BF704704200A49C4
:1002D000086003200749086030BF7047A8C10F407D
:1002E00000C00F40ACC10F4000000010C4C00F4060
:1002F000DEF7EFEFC0C00F4010ED00E0FFFFFFFFA3
:1003000094480068C0F30160032864D192480068F3
:1003100010F0030006D0012823D002283FD0032884
:1003200058D100E000BF8B480068C0F30E0000F118
:1003300001004FEA4000894900FB01F08849D1F8EB
:100340008810C1F3074101F10101B0FBF1F18548CB
:100350000068C0B200F10100B1FBF0F08249086012
:1003600038E07C480068C0F30E0000F101004FEA5D
:1003700040007E4900FB01F07949D1F88810C1F3B3
:10038000074101F10101B0FBF1F176480068C0B20C
:1003900000F10100B1FBF0F0734908601AE06D480C
:1003A0000068C0F30E0000F101004FEA00416C4804
:1003B000D0F88800C0F3074000F10100B1FBF0F174
:1003C00068480068C0B200F10100B1FBF0F0664976
:1003D000086000BF2FE06048006810F0030006D0FE
:1003E000012810D0022819D0032823D100E000BF33
:1003F0005C480068C0B200F101005849B1FBF0F060
:100400005949086016E057480068C0B200F1010081
:100410005649B1FBF0F0544908600BE051480068C0
:10042000C0B200F101004FF40041B1FBF0F04E49C1
:10043000086000BF00BF704720204D490860484851
:10044000D0F8A00110F0200F05D000BF4848006888
:1004500010F0400FFAD00320424908604FF000002E
:100460003F49C1F8A801434908604FF001003A49EB
:1004700008604148414908604FF0AA0040490860BF
:100480004FF0550008604FF001003E4908604FF002
:10049000AA003B4908604FF055003149C1F88C0073
:1004A00000BF2C48006810F0806FFAD00320354957
:1004B00008604FF0AA002A49C1F88C004FF055009F
:1004C0002F49086000BF2348006810F0407FFAD031
:1004D00023202D4908604FF0AA002149C1F8AC0043
:1004E0004FF05500294908604FF001002849086085
:1004F0004FF0AA00254908604FF055001849C1F88F
:10050000AC0000BF2348006810F4806FFAD00320CD
:100510001F4908604FF0AA001149C1F8AC004FF024
:1005200055001A49086000BF1A48006810F4407F5F
:10053000FAD01948194908604FF000000849C1F87D
:10054000C80143F23A0008604FF000001449086007
:100550007047000088C00F400CC10F4000093D00EB
:1005600000C00F4004C10F4000000010001BB70086
:10057000A0C10F40ACC10F406300050084C00F4014
:100580008CC00F4080C00F40A4C00F40ACC00F40D3
:10059000A0C00F40A8C00F40DE872804C4C00F4091
:1005A00008ED00E001460020052912D2DFE801F045
:1005B0000305080B0E00F8480CE0F748203009E06E
:1005C000F548403006E0F448603003E0F2488030FF
:1005D00000E000BF00BF704701460020052912D28D
:1005E000DFE801F00305080B0E00EB480CE0EA48D9
:1005F000203009E0E848403006E0E748603003E09A
:10060000E548803000E000BF00BF70470146002091
:10061000052912D2DFE801F00305080B0E00DE48C1
:100620000CE0DD48203009E0DB48403006E0DA48E5
:10063000603003E0D848803000E000BF00BF704762
:100640002DE9F04107460D4616463846FFF7AAFF4A
:1006500004463CB11EB120682843206002E02068B7
:10066000A8432060BDE8F08170B506460C463046D0
:10067000FFF798FF054605B1AC6170BD70B5064641
:100680000C463046FFF78EFF054605B1EC6170BDA4
:1006900070B505462846FFF785FF04460CB1606932
:1006A00070BD0020FCE718B912B9BC4B196014E00A
:1006B000022803D112B9BA4B19600EE020B9012A01
:1006C00002D1B84B196008E0022804D1012A02D1F6
:1006D000B54B196001E000BFFEE7704703463BB928
:1006E00032B9B248006820FA01F000F0010070470A
:1006F000022B07D132B9AE48006820FA01F000F0B1
:100700000100F4E743B9012A06D1AA48006820FA9B
:1007100001F000F00100EAE7022B08D1012A06D11E
:10072000A548006820FA01F000F00100DFE700BFF3
:10073000FEE710B9A14A116006E0022802D1A04AE2
:10074000116001E000BFFEE7704770B504460D463A
:100750001646324629462046FFF772FF70BD70B537
:1007600004460D4629462046FFF77EFF70BD70B552
:1007700004460D4629462046FFF780FF70BD10B5A0
:1007800004462046FFF784FF10BD70B504460D46B1
:100790001646324629462046FFF785FF70BD70B5E4
:1007A00004460D461646324629462046FFF796FF78
:1007B00070BD10B503460C4621461846FFF7B9FF39
:1007C00010BD2DE9F04107460D4616463846FFF7A5
:1007D000E9FE04463CB11EB120692843206102E0D5
:1007E0002069A8432061BDE8F0812DE9F0418046F1
:1007F0000E4615461F464046FFF7EEFE04468CB1F6
:1008000047B11EB16088284360800BE020882843F0
:10081000208007E01EB16088A843608002E0208845
:10082000A8432080BDE8F0812DE9F04180460E46C6
:1008300015461F464046FFF7CFFE04468CB147B130
:100840001EB1608A284360820BE0208A2843208200
:1008500007E01EB1608AA843608202E0208AA843B4
:100860002082BDE8F0812DE9F04107460E4614468E
:100870003846FFF7B1FE05461DB10EB16C8300E0AE
:100880002C83BDE8F0812DE9F04107460E46144661
:100890003846FFF7A1FE05461DB10EB1EC8300E01E
:1008A000AC83BDE8F08170B506460D463046FFF7D3
:1008B00093FE044624B10DB1E08A70BDA08AFCE726
:1008C0000020FAE72DE9F04180460C4616461F4607
:1008D0004046FFF79BFE05465DB12FB1032C08DCB7
:1008E000285D3043285504E0032C02DC285DB0432A
:1008F0002855BDE8F0812DE9F04180460C461646AA
:100900001F464046FFF782FE05469DB14FB1032CBE
:1009100010DC05F11000005D304305F110010855B1
:1009200008E0032C06DC05F11000005DB04305F182
:1009300010010855BDE8F0812DE9F04107460C464D
:1009400015463846FFF762FE064626B1032C02DC48
:1009500006F118000555BDE8F0812DE9F041074684
:100960000C4615463846FFF751FE064626B1032CC5
:1009700002DC06F11C000555BDE8F08170B50646A5
:100980000C463046FFF742FE0546DDB1032C19DC6C
:1009900005F11400005D70BD00C009209080024088
:1009A000B080024094800240B480024084800240C3
:1009B000A480024088800240A88002408C800240CF
:1009C000AC8002400020E6E7F0B504460B46154631
:1009D000194660003B4A102901D31039401C52F8D7
:1009E00020604FEA410C032707FA0CF7BE4342F898
:1009F000206052F820604F0005FA07F73E4342F8A6
:100A00002060F0BDF0B504460B461546194660005F
:100A10002C4A4032102901D31039401C52F8206072
:100A20004FEA410C032707FA0CF7BE4342F8206057
:100A300052F820604F0005FA07F73E4342F8206065
:100A4000F0BD30B50B461F496831012A07D151F876
:100A5000204001259D402C4341F8204006E051F8FC
:100A6000204001259D40AC4341F8204030BD012885
:100A700006D11449896A41F00801124A916206E0E0
:100A800028B91049896A21F008010E4A916270471D
:100A9000012800D1052201B90A220A4BDA67704702
:100AA00010B50446A27861782078FFF78DFFE278D0
:100AB00061782078FFF7A6FF227961782078FFF728
:100AC000C0FF10BD00C0024070B5054635B1012D14
:100AD00009D0022D0CD0032D14D10EE00220FFF717
:100AE000AAFB04460EE00420FFF7A5FB044609E03C
:100AF0002C20FFF7A0FB044604E02E20FFF79BFB11
:100B0000044600BF00BF204670BD2DE9F047814676
:100B10000C464846FFF7D8FF002605460023294625
:100B2000A1FB047C06FB04C205FB0321FB4A3846FB
:100B300002F060FF05462846BDE8F08701464FF009
:100B4000FF30B1F1402F01D100200DE0F44A914275
:100B500001D1012008E0F34A914201D1022003E0D3
:100B6000F14A914200D10320704770B505460C460A
:100B7000B5F1402F08D0EA48854205D0E9488542C2
:100B800002D0E948854200D103E0A621E7A001F0A8
:100B900057FC4CB1012C07D0022C05D0032C03D0FC
:100BA000042C01D0052C00D103E0A721DFA001F027
:100BB00047FC28680121A1400840C6B20EB10120BF
:100BC00070BD0020FCE770B505460C46B5F1402F1E
:100BD00008D0D348854205D0D248854202D0D248B9
:100BE000854200D103E0C421D0A001F029FC4CB122
:100BF000012C07D0022C05D0032C03D0042C01D0EB
:100C0000052C00D103E0C521C8A001F019FC28681B
:100C1000211D01228A401040C6B20EB1012070BDD4
:100C20000020FCE770B505460C46B5F1402F08D012
:100C3000BB48854205D0BB48854202D0BA488542B0
:100C400000D103E0DD21B9A001F0FAFB4CB1012C89
:100C500007D0022C05D0032C03D0042C01D0052C86
:100C600000D103E0DE21B1A001F0EAFB0120A040A9
:100C7000286070BD70B505460C46B5F1402F08D010
:100C8000A748854205D0A748854202D0A64885429C
:100C900000D103E0F421A5A001F0D2FB4CB1012C5E
:100CA00007D0022C05D0032C03D0042C01D0052C36
:100CB00000D103E0F5219DA001F0C2FB201D012120
:100CC0008140296070BD20B90A460123137053602A
:100CD00003E00A460023537000BF70472DE9F04738
:100CE00004460D461646B4F1402F08D08C48844285
:100CF00005D08C48844202D08B48844200D104E065
:100D000040F22B1189A001F09BFB1DB1012D01D0F8
:100D100000D000D104E04FF4967184A001F090FB64
:100D2000B4F1402F08D101210220FFF7A1FA0021E0
:100D30000220FFF73BFA22E07948844208D10121E2
:100D40000420FFF795FA00210420FFF72FFA16E0A0
:100D50007448844208D101218805FFF789FA0021EF
:100D60002C20FFF723FA0AE06F48844207D10121C3
:100D7000C805FFF77DFA00212E20FFF717FAA06AB9
:100D800020F00300A062A06AA0620020A0602061A1
:100D9000E060606840F002006060606820F002007F
:100DA000606085B93746387818B97868401EE060C9
:100DB00017E02046FFF7C2FE81467968FFF7A5FEDF
:100DC000401EE0600DE0B046A06A20F00C00A0627A
:100DD000464698F80100012803D1A06A40F00400BB
:100DE000A0624FF0FF302060BDE8F08710B50446E8
:100DF000B4F1402F08D04A48844205D04948844283
:100E000002D04948844200D104E040F2791147A061
:100E100001F016FB00206060B4F1402F04D10021E6
:100E20000220FFF725FA18E03D48844204D1002152
:100E30000420FFF71DFA10E03A48844205D1002152
:100E40004FF48000FFF714FA07E03748844204D1DA
:100E500000214FF48000FFF70BFA10BD70B5044677
:100E60000D46B4F1402F08D02D48844205D02D48BE
:100E7000844202D02C48844200D104E04FF4CD716A
:100E80002AA001F0DDFA012D04D1606840F00100D4
:100E9000606003E0606820F00100606070BD10B524
:100EA0000446B4F1402F08D01D48844205D01D48A7
:100EB000844202D01C48844200D104E04FF4D9712E
:100EC0001AA001F0BDFA606840F00200606060683E
:100ED00020F00200606010BD70B504460D46B4F10C
:100EE000402F08D00E48844205D00E48844202D0DC
:100EF0000D48844200D104E040F2D1110BA001F072
:100F00009FFA287940B12879012805D0287902284C
:100F100002D02879032829D12EE0000040420F009A
:100F20000080004000000940004009402E2E5C4C2B
:100F300069627261726965735C4C4350313736384F
:100F40005F5374645065726970685F447269766556
:100F5000725C736F757263655C6C7063313778783F
:100F60005F74696D65722E63000000004FF4E971D3
:100F7000AFF2480001F064FA287830B1012807D0B8
:100F8000022808D003280CD108E0A868A0610AE074
:100F9000A868E06107E0A868206204E0A8686062D1
:100FA00001E000BFFEE700BF6069297801EB410264
:100FB0000721914088436061687838B16069297879
:100FC00001EB41020121914008436061E87840B1A2
:100FD0006069297801EB4101491C01228A401043D4
:100FE0006061A87840B16069297801EB4101891CF2
:100FF00001228A4010436061E06B2978042202EBF1
:101000004102032191408843E063287900F0030006
:101010002978042202EB41018840E16B0843E06338
:1010200070BD70B504460E461546B4F1402F08D089
:101030004348844205D04348844202D04248844217
:1010400000D105E040F20721AFF2201001F0F8F9DD
:1010500036B1012E06D0022E06D0032E08D105E0AF
:10106000A56107E0E56105E0256203E0656201E056
:1010700000BFFEE700BF70BD70B504460D46B4F179
:10108000402F08D02E48844205D02E48844202D0FA
:101090002D48844200D105E040F22D21AFF27410BA
:1010A00001F0CEF9A06A297801EB410207219140B5
:1010B0008843A062687838B1A06A297801EB4102C0
:1010C000012191400843A062A87840B1A06A297824
:1010D00001EB4101491C01228A401043A062E878DB
:1010E00040B1A06A297801EB4101891C01228A40A4
:1010F0001043A06270BD70B504460D46B4F1402F98
:1011000008D00F48844205D00E48844202D00E48D1
:10111000844200D105E04FF41271AFF2F01001F0FB
:101120008FF90DB1012D00D105E040F24921AFF258
:10113000042001F085F90DB9E06A70BD206BFCE771
:101140000080004000000940004009402DE9F047C0
:1011500004468846F648844202D0F648844200D1CC
:1011600003E04321F4A001F06BF9F148844204D17B
:101170002A20FFF760F8074609E0EE48844204D1D0
:101180001420FFF758F8074601E0BDE8F087002576
:101190004FF0FF3902260AE0681C7043B7FBF0F9F4
:1011A000C14504D96D1CFF2D01D90025B61CC145D0
:1011B000F2D82068C0B2206020684FF6FF7101EAC3
:1011C000052108432060F0B2206100BFDDE770B563
:1011D00004460D46D648844202D0D648844200D107
:1011E00003E08121D4A001F02BF9D148844204D13D
:1011F00001214805FFF73CF808E0CE48844204D1BD
:1012000001210015FFF734F800E070BDA888298996
:101210000843298A08432988084386B22660287B28
:1012200000F00F06666020466969FFF78FFF00BF78
:10123000EBE710B50446BE48844202D0BD48844264
:1012400000D103E0A821BCA001F0FAF8B84884421C
:1012500005D100214FF40010FFF70AF806E0B54869
:10126000844203D100210015FFF702F810BD10B52C
:101270000446AF48844202D0AE48844200D103E025
:10128000C021ADA001F0DCF8206800F00F0010BD17
:10129000002141608160B74941610721016000215F
:1012A000C1600161704770B504460D46A048844294
:1012B00002D0A048844200D103E0E5219EA001F0C5
:1012C000BFF80DB1012D00D103E0E6219AA001F095
:1012D000B7F8012D04D1606840F00200606003E0BF
:1012E000606800F00D00606070BD70B504460D468A
:1012F0008F48844202D08F48844200D103E0FE210F
:101300008DA001F09DF80DB1012D00D103E0FF216A
:1013100089A001F095F8012D04D1606840F001002A
:10132000606003E0606800F00E00606070BD70B542
:1013300004460D467E48844202D07E48844200D155
:1013400004E04FF48D717CA001F07AF80DB1012D0D
:1013500000D104E040F21B1177A001F071F8012DDB
:1013600004D1606800F00700606003E0606840F04E
:101370000800606070BD70B504460D466C4884423C
:1013800002D06C48844200D104E04FF49A716AA004
:1013900001F056F8A8B2A06070BD10B504466448CC
:1013A000844202D06348844200D104E04FF4A27129
:1013B00061A001F045F8A06880B210BD2DE9F74F9B
:1013C00082B006460C460020E0606060606103E089
:1013D0003046FFF7E2FF0746F06810F0040FF7D140
:1013E000032030623046FFF742FF082801DD012567
:1013F00000E00025049800287AD125B9D4F8089097
:10140000D4F800A003E0D4F808B02068019060E0B0
:10141000F06810F0020F2ED02169606888422AD04F
:10142000206888B93DB9FF213046FFF7A4FF606806
:10143000401C60601FE04FF6FF713046FFF79BFFD6
:101440006068801C606016E055B99AF8001030465C
:10145000FFF791FF0AF1010A6068401C60600AE032
:10146000019801883046FFF786FF0198801C0190A3
:101470006068801C6060D6F8188018F0010F07D0F3
:1014800048F4007060614FF0FF3005B0BDE8F08FA8
:1014900017E03046FFF781FF0746A06848B125B93D
:1014A00089F8007009F1010903E0ABF800700BF155
:1014B000020B1DB9E068401CE06002E0E068801C9F
:1014C000E060F06810F0040F03D0D4E90301884213
:1014D000DFD12169606888429AD1D4E9030188424A
:1014E00096D14FF480706061206810B16068CCE7DD
:1014F00005E0A06808B1E068C7E70020C5E70498E8
:1015000001287DD176E0206888B93DB9FF213046B9
:10151000FFF731FF6068401C606041E04FF6FF71EB
:101520003046FFF728FF6068801C606038E023E0E9
:1015300000800840000003402E2E5C4C69627261FE
:10154000726965735C4C4350313736385F5374644D
:101550005065726970685F4472697665725C736F1A
:10156000757263655C6C7063313778785F73737024
:101570002E63000040420F004DB9D4E90002815CA7
:101580003046FFF7F8FE6068401C606008E0D4E970
:101590000002815A3046FFF7EEFE6068801C6060F2
:1015A000D6F8188018F0010F05D048F4007060617B
:1015B0004FF0FF3069E715E03046FFF7EEFE0746D3
:1015C000A06838B11DB9D4E902128F5402E0D4E901
:1015D00002128F521DB9E068401CE06002E0E06832
:1015E000801CE060F06810F0040F03D0D4E9030120
:1015F0008842E1D1F06810F0020F06D0216900E0C6
:1016000013E0606888427FF47EAFD4E9030188422A
:1016100003D121696068884202D00F20706102E026
:101620004FF48070606100202FE74FF0FF302CE70F
:1016300070B505460C467748854202D0764885420B
:1016400000D105E04FF40571AFF2141000F0F8FE80
:10165000012C07D0022C05D0042C03D0082C01D07B
:10166000102C00D105E040F21521AFF2341000F04B
:10167000E7FEE868204201D0012070BD0020FCE7B1
:1016800070B504460D4616466248844202D0624850
:10169000844200D105E04FF40B71AFF2641000F00A
:1016A000CFFE012E03D160692843606104E06069C8
:1016B0000F21A9430840606170BD70B505460C4616
:1016C0005448854202D05448854200D105E040F29A
:1016D0004921AFF29C1000F0B3FE012C05D0022C82
:1016E00003D0042C01D0082C00D105E040F24A219F
:1016F000AFF2BC1000F0A4FEA869204201D0012086
:1017000070BD0020FCE710B504464248844202D078
:101710004148844200D105E04FF41671AFF2E81061
:1017200000F08EFEA06910BD70B505460C46394824
:10173000854202D03848854200D105E040F26D2153
:10174000AFF20C2000F07CFE012C05D0022C03D05F
:10175000042C01D0082C00D105E040F26E21AFF23C
:10176000282000F06DFEE869204201D0012070BD04
:101770000020FCE770B504460D462648844202D09E
:101780002548844200D105E040F28121AFF2582083
:1017900000F056FE012D01D0022D00D105E040F2EF
:1017A0008221AFF26C2000F04BFE256270BD70B557
:1017B00004460D4616461748844202D01648844215
:1017C00000D105E040F29721AFF2942000F038FEFE
:1017D000022D01D0012D00D105E04FF42671AFF2AA
:1017E000A82000F02DFE0EB1012E00D105E040F240
:1017F0009921AFF2BC2000F023FE012E03D1606AD4
:101800002843606204E0606A0321A94308406062E3
:1018100070BD000000800840000003400146F84809
:10182000814201D100207047F648814201D1012058
:10183000F9E7F548814201D10220F4E74FF0FF308B
:10184000F1E70146202008600820886100BF086891
:1018500010F0080FFBD020208861486800F0F800E5
:101860007047016811F0200F01D020218161102103
:1018700001600821816170470246106810F0200F56
:1018800001D020209061C8B290600820906100BF14
:10189000106810F0080FFBD0506800F0F800704797
:1018A0000346012A02D10420186001E00420986157
:1018B0000820986100BF186810F0080FFBD09868E6
:1018C0000870586800F0F800704770B504460E467E
:1018D000CB48844205D0CB48844202D0CA488442D7
:1018E00000D103E0E021C9A000F0AAFDC448844271
:1018F00005D10E20FEF79FFCB0FBF6F510E0C148C5
:10190000844205D12620FEF796FCB0FBF6F507E0F1
:10191000BD48844204D13420FEF78DFCB0FBF6F5BF
:10192000680820612069281A606170BD70B504469E
:101930000D46B348844205D0B248844202D0B24832
:10194000844200D104E04FF48471B0A000F078FD2F
:10195000AB48844208D101218020FEF789FC022196
:101960000E20FEF723FC18E0A648844208D101218E
:10197000C804FEF77DFC02212620FEF717FC0CE0D0
:10198000A148844208D101218806FEF771FC02219A
:101990003420FEF70BFC00E070BD29462046FFF71F
:1019A00094FF6420A06100BFF6E710B50446944898
:1019B000844205D09348844202D09348844200D1A7
:1019C00004E04FF49C7191A000F03AFD4020A0612A
:1019D0008B48844204D100218020FEF749FC10E0AE
:1019E0008848844205D100214FF40020FEF740FCD6
:1019F00007E08548844204D100214FF08060FEF763
:101A000037FC10BD70B504460D460DB1012D00D157
:101A100004E040F259117DA000F012FD78488442A4
:101A200005D07848844202D07748844200D104E04F
:101A30004FF4AD7175A000F003FD012D02D14020DF
:101A4000206001E04020A06170BD70B504460D46E5
:101A5000A5B16B48844203D10A2000F088FC21E044
:101A60006848844203D10B2000F081FC1AE06648EC
:101A7000844217D10C2000F07AFC13E060488442C5
:101A800003D10A2000F07FFC0CE05E48844203D1C1
:101A90000B2000F078FC05E05B48844202D10C206A
:101AA00000F071FC70BD2DE9F04105462846FFF7B6
:101AB000B5FE0646644850F83640686800F0F807FE
:101AC0006762F82F03D10820A861BDE8F0815E4865
:101AD00000EBC6004068002857D1202F48D006DC14
:101AE000082F0BD0102F0AD0182F4CD115E0282F1B
:101AF00014D0302F3DD0382F45D13FE000BF2020FB
:101B0000A861606838B1A06828B120684000A8606A
:101B10000820A86100E012E036E000BFD4E902101E
:101B200088420BD2606848B1E1686068405CA86098
:101B3000E068401CE0600820A86118E000BF0120B8
:101B4000414901EBC6014860606958B1206948B15C
:101B5000A06830B1606820B1202028600C20A86106
:101B600005E031E0606A40F480606062B6E00BE05E
:101B700000BF606A40F400706062A0E0606A40F4F8
:101B80008070606200BF9AE0B5E02F4800EBC600AD
:101B900040680128F8D1402F24D006DC082F0BD054
:101BA000102F0AD0382F7DD183E0482F7CD0502FC2
:101BB0004CD0582F76D163E000BF2020A861206967
:101BC00050B1606940B100BF0121206801EB4000C5
:101BD000A8600820A86104E0606A40F48060606248
:101BE0007CE087E0D4E90501401E814202D2042056
:101BF000286001E00420A8610820A8617AE00000C4
:101C000000C0014000C0054000000A402E2E5C4C80
:101C100069627261726965735C4C43503137363862
:101C20005F5374645065726970685F447269766569
:101C3000725C736F757263655C6C70633137787852
:101C40005F6932632E63000018000010206950B1F4
:101C5000D4E90510884206D2A868A269216988548F
:101C6000A069401CA061D4E90501401E814202D256
:101C70000420286001E00420A8610820A86139E060
:101C8000206950B1D4E90510884206D2A868A2693B
:101C900021698854A069401CA061606A40F480609A
:101CA00060621BE00AE0FFE7606A40F40070606277
:101CB00005E0606A40F48070606200BF00BFD4E954
:101CC0000710884209D20020E060202028600C2004
:101CD000A861206A401C20620BE000BF002128465A
:101CE000FFF7B3FE2846FFF7BCFD0120FE4941F88F
:101CF000260000BF00BF00BFE7E62DE9F041044623
:101D00002046FFF78BFD8046F84850F83850606851
:101D100000F0F806AE61F82E03D10820A061BDE8FE
:101D2000F08116F0070F68D1F0100C38142864D237
:101D3000DFE800F00F631063152816292C4763486D
:101D40005A6363636363630A042020600820A06110
:101D50005FE000BF042020600820A06159E000BFC0
:101D6000D5E90410884208D2E86830B1A0686A69F1
:101D7000E96888546869401C686104202060082074
:101D8000A06146E000BF0820A06142E0002120469B
:101D9000FFF75BFE0820A06147030FE0206810F00A
:101DA000080F04D001212046FFF74FFE07E07F1EF9
:101DB00027B9A86940F48060A8611FE0EEE700BF82
:101DC00027E000BFD5E90110884208D2286830B169
:101DD000A9682868405CA060A868401CA86004202E
:101DE00020600820A06114E0042020600820A06189
:101DF000A86940F48060A86100E000BF002120468F
:101E0000FFF723FE2C20A0610120B94941F82800EA
:101E100000BF00BF00BF82E72DE9F84306460C462D
:101E20001746D4F80480D4F810900020E060A06138
:101E30006062002F7ED1206200BFD4F80480D4F805
:101E400010900020E060A06100253046FFF7F9FC0B
:101E50000546082D0BD0102D09D0206A401C2062A9
:101E6000D4E90710884201D96562ABE0E5E7A068D4
:101E7000A0B3606890B320784006010E3046FFF7AB
:101E8000FBFC0546182D0BD0206A401C2062D4E9CB
:101E90000710884203D945F40070606292E0CCE7F5
:101EA00018E098F800103046FFF7E6FC0546282DAC
:101EB0000BD0206A401C2062D4E90710884203D965
:101EC00045F4007060627DE0B7E708F10108E06862
:101ED000401CE060D4E902108842E2D3A068B8B1A7
:101EE0006068A8B1606998B1206988B13046FFF791
:101EF000A8FC0546082D0BD0102D09D0206A401CE7
:101F00002062D4E90710884201D965625AE094E75B
:101F10006069002850D0206900284DD02078012227
:101F200002EB4000C1B23046FFF7A6FC0546402D4B
:101F30000DD000E04BE0206A401C2062D4E907107D
:101F4000884203D945F4007060623BE075E72FE0FA
:101F5000D4E90501401E814211D201226946304672
:101F6000FFF79EFC0546502D1BD0206A401C2062C6
:101F7000D4E90710884201D9656223E05DE70022B9
:101F800069463046FFF78CFC0546582D09D0206A7B
:101F9000401C2062D4E90710884201D9656211E033
:101FA0004BE79DF8000009F8010BA069401CA061F7
:101FB000D4E905108842CBD33046FFF752FC01200C
:101FC000BDE8F8833046FFF74CFC0020F8E7012F0E
:101FD0001AD13046FFF722FCC0B2009043489DF86A
:101FE000001040F83140002040499DF8002001EBEE
:101FF000C20148600820B0612020306001213046D5
:10200000FFF723FD0120DBE70020D9E72DE9F84F9A
:1020100004460D461646D5F80090D5F80CA00020D1
:10202000A8606861A861002E5DD10420206028208E
:10203000A06100200090834672E0206810F0080F35
:1020400065D000200090606800F0F80717F0070FD7
:1020500059D1F8100C38142855D2DFE800F00F548D
:102060001054152716282B3254334B5454545454BF
:10207000540A042020600820A06147E000BF04202B
:1020800020600820A06141E000BFD5E9041088422B
:1020900007D2E86828B1A0680AF8010B6869401CFB
:1020A0006861042020600820A0612FE000BF0820A4
:1020B000A0612BE00820A061012000904FF0000BF0
:1020C00024E000BFD5E90110884207D2286828B172
:1020D00019F8010BA060A868401CA86004202060CB
:1020E0000820A06112E029E0300000101800001064
:1020F0003C000010042020600820A0610120009016
:102100004FF0000B02E00820A06112E008E0009808
:1021100030B158460BF1010BB0F5803F00D900E01B
:102120008BE70420A06147F48060A8610120BDE82E
:10213000F88F0420A061AF610020F8E7012E15D1CF
:102140002046FFF76BFB8046934840F8385001204B
:10215000914901EBC8014860042020602820A0615B
:1021600001212046FFF771FC0120E0E70020DEE7B7
:1021700070B504460D468948844205D0884884429B
:1021800002D08848844200D105E040F2A141AFF27C
:10219000845000F055F92878002803DB28780328BC
:1021A00000DC05E040F2A241AFF2A05000F048F997
:1021B000A87810B1A878012800D105E040F2A34129
:1021C000AFF2B85000F03CF9A878012800D100E047
:1021D0000020697840EA4100C6B2287830B1012871
:1021E0000AD002280ED0032818D111E0E660E87862
:1021F00000F0FE00206311E02662E87800F0FE00A7
:1022000060630BE06662E87800F0FE00A06305E022
:10221000A662E87800F0FE00E06300BF00BF70BD7A
:1022200070B504460D4616465C48844205D05C48AD
:10223000844202D05B48844200D105E040F2D5419F
:10224000AFF2386000F0FCF8022D00D000BF00BFF4
:102250000EB1012E00D105E040F2D741AFF254603B
:1022600000F0EEF8012E03D1E0692843E06104E0BC
:10227000E0690721A9430840E06170BD70B50446DC
:102280000D464648844205D04548844202D0454820
:10229000844200D105E040F2F141AFF2906000F0DD
:1022A000CFF80DB1012D00D105E040F2F241AFF2BF
:1022B000A46000F0C5F8012D08D1E06940F00100EC
:1022C000E061042020602820A06105E0E06900F0C2
:1022D0000600E0612C20A06100203349086070BD39
:1022E00010B504462D48844205D02D48844202D0C2
:1022F0002C48844200D105E040F21451AFF2F46062
:1023000000F09EF8E06AC0B210BD30B50346002070
:1023100008249C61DC6A244D2D684C55224C2468AD
:10232000641C214D2C602C462468944200D301206B
:1023300030BD70B505462846FFF770FA04461B48C5
:1023400050F824600020194941F82400304670BD3F
:1023500070B505462846FFF761FA0446144850F860
:1023600024600020124941F82400304670BD00F07E
:102370001F020121914042094FF0E02303EB82024A
:10238000C2F80011704700F01F0201219140094A74
:10239000430942F8231070471800001000C00140A4
:1023A00000C0054000000A4004000010300000108A
:1023B0003C00001080E100E01CB500208DF800001A
:1023C0001B208DF8010001208DF802006846FEF701
:1023D00067FB00208DF800001C208DF80100012013
:1023E0008DF802006846FEF75BFB1CBD1CB50220A1
:1023F0008DF800000A208DF8010000208DF8020001
:102400006846FEF74DFB02208DF800000B208DF88A
:10241000010000208DF802006846FEF741FB1CBD5C
:1024200010B5FFF7C9FFFFF7E1FF10BD10B5FE497A
:10243000FE48FFF77BFA0121FC48FFF7E3FA10BDE5
:1024400000BFFEE7F0B58DB004460D461646E0B27B
:1024500001909DF80400201A40F05000029001A85D
:102460000390012004900695079600200A9000270B
:102470003A4602A9ED48FFF7CFFC012800D103E05E
:102480006521EBA0FFF7DCFF0DB0F0BDF0B58DB01E
:1024900004460D461646E0B28DF8040028788DF803
:1024A00005009DF80400201A40F05000029001A899
:1024B0000390701C0490002006900A9000273A4672
:1024C00002A9DA48FFF7A8FC012800D103E07D212A
:1024D000D7A0FFF7B5FF0DB0F0BD00B585B0002067
:1024E0008DF8080001208DF8090000208DF80A0001
:1024F00001208DF80B0003208DF80C00642004905F
:102500004FF4FA70019001208DF8000002A94FF0FD
:102510004020FEF7E1FC6A4600214FF04020FEF724
:10252000DDFB01214FF04020FEF798FC05B000BD17
:1025300008B5C3480078401CC149087008460278B5
:10254000C0A1C34801F0CEFA1F200023C04A502189
:102550000090192000F0CDFF08BD00B58DB01F2000
:1025600001220092CDE901204FF4A073F022002156
:102570000390084601F011F84FF478404FF6FF71D0
:10258000012200922823CDE901210390C8220A21CB
:10259000142001F002F81F204FF6FF710122009273
:1025A0002823CDE901210390C8224621142000F000
:1025B000F4FF1F204FF6FF71012200922823CDE97E
:1025C00001210390C8228221142000F0E6FFA1A17E
:1025D00005A801F087FA4FF47840002305AA1921D5
:1025E00000905A2000F085FF9DA105A801F07AFA1D
:1025F0001F20002305AA552100905A2000F079FFE2
:1026000001229A495020FFF71DFF9848027898A1AF
:1026100005A801F067FA1F20002305AA9121009068
:10262000462000F066FF0DB000BD10B500209449B3
:102630000860FFF792FF10BD00B58DB01F2001228A
:102640000092CDE901204FF4A073F0220021039005
:10265000084600F0A2FF4FF478404FF6FF710122C8
:1026600000922823CDE901210390C8220A211420D9
:1026700000F093FF4FF478404FF6FF7100220123E2
:10268000CDE90032CDE90210282350224621142042
:1026900000F083FF4FF478404FF6FF7100220123D2
:1026A000CDE90032CDE902102823822246216E2096
:1026B00000F073FF4FF6E0704FF6FF7101220092B9
:1026C000A023CDE901210390C8228221142000F02B
:1026D00064FF60A105A801F005FA4FF478400023DB
:1026E00005AA192100905A2000F003FF65A105A852
:1026F00001F0F8F91F20002305AA502100901920AD
:1027000000F0F7FE012259495020FFF79BFE574881
:1027100002785FA105A801F0E5F91F20002305AAB2
:1027200050210090732000F0E4FE5DA105A801F0A7
:10273000D9F94FF6E070002305AA822100901420F9
:1027400000F0D7FE0DB000BD10B501204C49086067
:10275000FFF772FF10BD08B55348028853A13C48EB
:1027600001F0C0F91F2047F6FF73394A4FF4967104
:102770000090142000F0BDFE4E4802884EA134485F
:1027800001F0B0F91F2047F6FF73314A4FF49671FC
:102790000090782000F0ADFE4348008840F28A2186
:1027A000884216DB4048008840F6AC51884210DC75
:1027B0004048008840F6C41188420ADB3D48008842
:1027C00040F6B831884204DC2D48006808B9FFF7AC
:1027D000BBFF2B48006801281AD1394800686428DB
:1027E00016D1012221495020FFF72CFE1448007811
:1027F0001E490978884204DB012211495020FFF765
:1028000045FE00202E4908600D490870FFF70DFFB6
:102810002548008840F28A21884263DB22480088EC
:10282000B0F5616F5EDC4DE020A1070000C0014003
:102830002E2E5C557365725C6D61696E2E630000AF
:102840001000001053636F72653A20256400000089
:10285000480000104869742067616D650000000041
:102860004E65772047616D65000000001100001083
:10287000486967682053636F72653A2025640000D9
:102880000800001053636F72653A203000000000AA
:10289000486967682073636F72653A202564000099
:1028A000486974210000000012000010583A2025E9
:1028B0003034640014000010593A2025303464008C
:1028C0000C00001022480088B0F5167F0ADB204873
:1028D0000088B0F5166F05DC1E480068012801D19C
:1028E000FFF726FE1B480068012804D11A4800683B
:1028F000401C1949086000214FF04020FEF792F972
:1029000008BD10B5FFF78CFDFFF790FD00F047F90B
:1029100000F0CEFEFFF7E1FD10BD08B500200090ED
:10292000012269465020FFF7B1FD08BDFFF7E9FF1E
:10293000FFF7F3FFFFF711FE0848006840F00200C0
:102940004FF0E021C1F8000101E000F0B2FFFCE728
:1029500014000010080000100C00001000E100E05E
:10296000000200BF0100A0F10100FBD1704710B5CB
:1029700001224FF470010020FDF7E7FE01224FF025
:1029800060711046FDF7E1FE4FF470010020FDF785
:10299000E6FE4FF060710120FDF7E1FE10BD10B5BD
:1029A000222001F0CFFA10BD10B504464FF480008C
:1029B000FE49C86180108861204601F065FA4FF435
:1029C0000000FA49C861012001F0B2FA4FF400009A
:1029D000F64988614010886110BDF548008870474D
:1029E00030B5014601F01F04C1F34513CA0AE502E0
:1029F00005EB43151544A8B230BD70B504460D462D
:102A0000EB480088A0F50941893907D1A1B24E20D1
:102A100001F0B8FAA9B24F2001F0B4FAA1B2202017
:102A200001F0B0FAA9B2212001F0ACFA70BD70B586
:102A300004460D4629462046FFF7DFFFFFF7AFFFAC
:102A400001F038FA064601F035FA0646304670BD08
:102A500070B50546002400210846FFF7CEFFFFF7BA
:102A60009EFF00BF03E02846FFF79EFF641CB4F5FD
:102A7000963FF8D370BD10B5CD480088A0F5094148
:102A8000893905D146F23001112001F07BFA04E0CA
:102A900041F23001032001F075FA00210846FFF7EA
:102AA000ACFFFFF77CFF45F25550FFF77DFF4AF67C
:102AB000AA20FFF779FF00210846FFF79EFF10BD0F
:102AC0002DE9F041BA480088A0F50941893904D0C0
:102AD00041F23001032001F055FA0025002108469B
:102AE000FFF78BFFFFF75BFF002405E02846FFF7A9
:102AF0005BFF681C85B2641CB4F5963FF6D30025D5
:102B0000AB480088A0F5134120390BD0A8480088B5
:102B1000A0F51341253905D0A5480088A0F513413B
:102B2000283919D1002413E000260EE02146304652
:102B3000FFF77DFF0746FFF753FF29466A1C95B252
:102B4000884201D0BDE8F081761CF02EEED3641CE3
:102B5000B4F5A07FE8D320E095480088A0F58A412D
:102B6000313905D092480088A0F50941893914D13E
:102B700000240FE000260AE021463046FFF757FF09
:102B800029466A1C95B2884200D0DBE7761CF02EFD
:102B9000F2D3641CB4F5A07FECD300BFD2E770B5CC
:102BA000FFF7E5FE40F2DC50FFF7DAFE0024204696
:102BB00001F0C8F901F07EF9054600BF7C480580A8
:102BC0000088A0F58A41313923D079480088A0F5E2
:102BD000EE4183391DD076480088A0F51341203995
:102BE00017D073480088A0F51341253911D07048DB
:102BF0000088A0F5134128390BD06D480088B0F546
:102C0000134F06D06A480088A0F50941893900D0E1
:102C100070BD67480088A0F51341253905D0644888
:102C20000088A0F5134128397DD11021E72001F05B
:102C3000A9F90121002001F0A5F94FF480710120CC
:102C400001F0A0F94FF4E061022001F09BF941F29C
:102C50002801032001F096F90021042001F092F9E7
:102C600040F20721082001F08DF90021092001F030
:102C700089F900210A2001F085F901210C2001F0D9
:102C800081F900210D2001F07DF900210F2001F0D4
:102C900079F90021102001F075F90721112001F0C8
:102CA00071F90021122001F06DF90021132001F0CB
:102CB00069F90F20FFF754FE41F29051102001F006
:102CC00061F940F22721112001F05CF90F20FFF794
:102CD00047FE9C21122001F055F90F20FFF740FE1E
:102CE0004FF4C851132001F04DF92321292001F0A0
:102CF00049F90E212B2001F045F90F20FFF730FE96
:102D00000021202001F03EF90021212001F03AF9B4
:102D10000F20FFF725FE0721302001F033F940F2A4
:102D20000771312000E08AE001F02CF90621322001
:102D300001F028F940F20471352001F023F941F641
:102D40000471362001F01EF90421372001F01AF930
:102D50000021382001F016F940F20671392001F007
:102D600011F940F201713C2001F00CF90F213D20D6
:102D700001F008F90F20FFF7F3FD0021502001F0CA
:102D800001F9EF21512001F0FDF80021522001F05E
:102D9000F9F840F23F11532001F0F4F84FF42741C5
:102DA000602001F0EFF80121612003E000C009205C
:102DB0001600001001F0E6F800216A2001F0E2F8A8
:102DC0000021802001F0DEF80021812001F0DAF8F6
:102DD0000021822001F0D6F80021832001F0D2F8F2
:102DE0000021842001F0CEF80021852001F0CAF8EE
:102DF0001021902001F0C6F80021922001F0C2F8C5
:102E00000321932001F0BEF84FF48871952001F062
:102E1000B9F80021972001F0B5F80021982001F0C1
:102E2000B1F840F23311072001F0ACF80021202066
:102E300001F0A8F80021212001F0A4F812E3FC48D9
:102E40000088A0F51341203904D0F9480088B0F576
:102E5000134F7DD10021084601F094F80021012094
:102E600001F090F84FF4E061022001F08BF841F29C
:102E70001801032001F086F80021042001F082F8F7
:102E800040F20221082001F07DF80021092001F024
:102E900079F800210A2001F075F801210C2001F0D9
:102EA00071F800210D2001F06DF800210F2001F0D4
:102EB00069F80F20FFF754FD40F20111072001F0DF
:102EC00061F80F20FFF74CFD4FF48651102001F000
:102ED00059F80721112001F055F84FF4887112209C
:102EE00001F050F84FF43061132001F04BF800214D
:102EF000292001F047F844F210012B2001F042F89C
:102F00000021502001F03EF8EF21512001F03AF865
:102F10000021522001F036F840F23F11532001F019
:102F200031F84FF42741602001F02CF80121612095
:102F300001F028F800216A2001F024F80021802007
:102F400001F020F80021812001F01CF8002100E0B0
:102F50002DE0822001F016F80021832001F012F804
:102F60000021842001F00EF80021852001F00AF8EC
:102F70001021902001F006F80021922001F002F8C3
:102F80000121932000F0FEFF4FF48871952000F09E
:102F9000F9FF0021972000F0F5FF0021982000F0B4
:102FA000F1FF40F27311072000F0ECFF5AE2A04855
:102FB0000088A0F58A4131397DD10121002000F03F
:102FC000E1FF4FF4C561102000F0DCFF0621122064
:102FD00000F0D8FF40F63221132000F0D3FF40214B
:102FE000112000F0CFFF5021152000F0CBFF16215B
:102FF000122000F0C7FF0F20FFF7B2FC45F260611E
:10300000102000F0BFFF0F20FFF7AAFC42F64E2170
:10301000132000F0B7FF0021012000F0B3FF4FF4B0
:103020004071022000F0AEFF41F23001032000F0B9
:10303000A9FF40F20221082000F0A4FF00210A208D
:1030400000F0A0FF0021302000F09CFF40F2024180
:10305000312000F097FF4FF48371322000F092FF8F
:103060004FF4E061332000F08DFF4FF48271342083
:1030700000F088FF40F20131352000F083FF40F27C
:103080000771362000F07EFF40F20531372000F056
:1030900079FF4FF40271382000F074FF40F60B7195
:1030A000392000F06FFF0F20FFF75AFC022141206A
:1030B00000F068FF00E037E04FF42741602000F0A7
:1030C00061FF0121612000F05DFF40F219119020A5
:1030D00000F058FF4FF48571922000F053FF042157
:1030E000932000F04FFF4FF48071A02000F04AFFC2
:1030F0000F20FFF735FC0F20FFF732FC0F20FFF702
:103100002FFC0F20FFF72CFC40F23311072000F0BA
:1031100039FF0F20FFF724FC0021A02000F032FF30
:103120001420FFF71DFC9DE141480088A0F5EE4109
:1031300083397CD10121FF2000F024FF0821F320F6
:1031400000F020FF4FF48071012000F01BFF4FF4CE
:10315000E061022000F016FF41F23001032000F090
:1031600011FF40F20231082000F00CFF40F207216D
:10317000082000F007FF0021092000F003FF0021D4
:103180000A2000F0FFFE0021102000F0FBFE0521C8
:10319000112000F0F7FE0021122000F0F3FE0021C4
:1031A000132000F0EFFE1420FFF7DAFB41F2B0210C
:1031B000102000F0E7FE1420FFF7D2FB07211120BA
:1031C00000F0E0FE1420FFF7CBFB8B21122000F073
:1031D000D9FE1420FFF7C4FB4FF4B851132000F0C0
:1031E000D1FE1420FFF7BCFB2221292000F0CAFEEB
:1031F0000021302000F0C6FE40F20771312000F0BF
:10320000C1FE40F20551322000F0BCFE40F2071131
:10321000352000F0B7FE0821362000F0B3FE002173
:10322000372000F0AFFE40F20221382002E040E0FB
:103230001600001000F0A6FE4FF48371392000F054
:10324000A1FE40F202213C2000F09CFE4FF481617F
:103250003D2000F097FE1420FFF782FB0021502054
:1032600000F090FEEF21512000F08CFE0021522052
:1032700000F088FE40F23F11532000F083FE4FF42F
:103280002741602000F07EFE0121612000F07AFEDF
:103290003321902000F076FE0B212B2000F072FEEF
:1032A00040F23311072000F06DFE1420FFF758FBA9
:1032B000D8E071480088A0F509418939F8D1212169
:1032C000072000F05FFE0121002000F05BFE2321BB
:1032D000072000F057FE0021102000F053FE40F6BA
:1032E000B830FFF73DFB3321072000F04BFE46F2DC
:1032F0007001112000F046FE4FF4C061022000F082
:1033000041FE40F60401032000F03CFE00210C20A9
:1033100000F038FE40F60C010D2000F033FE4FF4B3
:1033200024510E2000F02EFEB8211E2000F02AFEAF
:1033300042F63F31012000F025FE0021102000F070
:1033400021FE0021052000F01DFE0021062000F0D6
:1033500019FE4EF61C71162000F014FE03211720F2
:1033600000F010FE40F23321072000F00BFEC021D8
:103370000B2000F007FE00210F2000F003FE0021CB
:10338000412000F0FFFD0021422000F0FBFD002164
:10339000482000F0F7FD40F23F11492000F0F2FD17
:1033A00000214A2000F0EEFD00214B2000F0EAFD54
:1033B0004FF46F41442000F0E5FD0021452000F06E
:1033C000E1FD40F23F11462000F0DCFD40F20771C4
:1033D000302000F0D7FD4FF40171312000F0D2FD14
:1033E0004FF40171322000F0CDFD40F20251332044
:1033F00000F0C8FD40F20751342000F0C3FD4FF447
:103400000171352000F0BEFD4FF40171362000F04F
:10341000B9FD40F20251372000F0B4FD40F2023114
:103420003A2000F0AFFD40F202313B2000F0AAFD4F
:103430000021232000F0A6FD0021242000F0A2FDA1
:103440004FF40041252000F09DFD00214F2000F0A9
:1034500099FD00214E2000F095FDFFF70CFB1F2089
:10346000FFF7F6FAFFF707FBFFF72AFB1F20FFF72E
:10347000EFFA00BFFFF7CCBB160000102DE9F84FA4
:1034800005460E46174698460095B14600242CE0A6
:10349000A7F12000244901EB001010F804A04946D0
:1034A0000098FFF7AAFA09F101001FFA80F9FFF767
:1034B00076FA4FF0000B13E01AF0800F04D01FFAD9
:1034C00088F0FFF771FA03E00A9988B2FFF76CFA07
:1034D0004FEA4A604FEA106A0BF1010000F0FF0B5F
:1034E000BBF1080FE8DB601CC4B2102CD0DBBDE8D8
:1034F000F88F2DE9F84305460E4614461F46DDF8C1
:1035000020800BE0CDF8008022783B4631462846EB
:10351000FFF7B4FF641C05F1080085B2207800288D
:10352000F0D1BDE8F8830000983F00002DE9F05F7E
:1035300081460D4617469846DDE90AABBAF1760F8B
:1035400014D12C460EE021464846FFF756FAFFF705
:1035500026FA002603E05846FFF726FA761C464571
:10356000F9D9641CE819A042EDD214E02C460EE013
:1035700021464846FFF741FAFFF711FA002603E01B
:103580005846FFF711FA761CBE42F9D9641C05EBC8
:103590000800A042ECD2BDE8F09F2DE9FC5F074691
:1035A000884691461D46DDE90E4BDDE90C6ABAF10D
:1035B000010F08D168202B464A464146CDE9000B51
:1035C0003846FFF7B3FF682033464A464146CDE907
:1035D00000043846FFF7AAFF762007EB0901CDE982
:1035E0000004881B33462A464146FFF79FFF6820A8
:1035F000CDE9000408EB0500811B33464A463846F6
:10360000FFF794FF762033462A464146CDE9000471
:103610003846FFF78BFFBDE8FC9F000011B581B075
:103620000120EB49086101A808600022E948FDF784
:10363000C5FEC4B22CB1E649C1F808D09DF800001F
:103640001CBD0020FCE700B589B000208DF81C00EF
:1036500002208DF81E0000208DF81F008DF820003C
:1036600007208DF81D0007A8FDF71AFA08208DF82D
:103670001D0007A8FDF714FA09208DF81D0007A802
:10368000FDF70EFA082001900020029003900490AC
:103690000590D148069001A8FDF7FAFD01A9CD4893
:1036A000FDF795FD0121CB48FDF7FDFD09B000BDFB
:1036B0001CB500208DF802008DF804008DF8030081
:1036C00013208DF8010000208DF800006846FDF7FA
:1036D000E7F900224FF400211046FCF7B1FF012268
:1036E000D1040020FCF7DFFF012240210020FCF77D
:1036F000A7FF40210020FCF7B7FFFFF7A4FF01223E
:1037000040210020FCF79CFF40210020FCF7B6FF81
:103710008020FFF783FF012240210020FCF790FF6B
:1037200040210020FCF7A0FF1CBD2DE9F04196B020
:10373000B5E000243EE0012240210020FCF780FF9C
:1037400040210020FCF79AFFD020FFF767FF002000
:10375000FFF764FF4006000D11A921F81400902026
:10376000FFF75CFF11A931F8141041EAE00011A93C
:1037700021F814000020FFF751FF4006000D0CA9AE
:1037800021F814000020FFF749FF0CA931F81410AC
:1037900041EAE0000CA921F814008020FFF73EFF69
:1037A000012240210020FCF74BFF40210020FCF7C4
:1037B0005BFF641C0A2CBED34FF6FF731D46002628
:1037C000002700210022002032E00DF1440C3CF8DB
:1037D00010C09C4503D20DF1440C3CF810300DF1A3
:1037E000440C3CF810C0B44503D90DF1440C3CF82E
:1037F00010600DF1440C3CF810C061440DF1300C28
:103800003CF810C0AC4503D20DF1300C3CF8105020
:103810000DF1300C3CF810C0BC4503D90DF1300C53
:103820003CF810700DF1300C3CF810C06244401CA4
:103830000A28CAD3A1EB030CACEB0601A2EB050CE2
:10384000ACEB0702C1F3CF0CDFF89081A8F800C001
:10385000C2F3CF0CDFF88881A8F800C05F48028867
:1038600060A107A800F03EF9404602885FA102A8C7
:1038700000F038F91F2047F6FF7307AA4FF4917143
:1038800000900020FFF735FE1F2047F6FF7302AAC5
:103890004FF4917100907820FFF72BFE00BF0020BD
:1038A000FCF7F6FE10F4002F3FF443AF16B0BDE86E
:1038B000F0812DE9F0418AB000243BE00122402153
:1038C0000020FCF7BDFE40210020FCF7D7FED020F1
:1038D000FFF7A4FE0020FFF7A1FE4006000D05A99A
:1038E00021F814009020FFF799FE05A931F8141073
:1038F00041EAE00005A921F814000020FFF78EFE40
:103900004006000D2DF814000020FFF787FE3DF85B
:10391000141041EAE0002DF814008020FFF77EFE2D
:10392000012240210020FCF78BFE40210020FCF703
:103930009BFE641C0A2CC1D34FF6FF731D46002664
:10394000002700210022002028E00DF1140C3CF893
:1039500010C09C4503D20DF1140C3CF810300DF151
:10396000140C3CF810C0B44503D90DF1140C3CF80C
:1039700010600DF1140C3CF810C061443DF810C00B
:10398000AC4501D23DF810503DF810C0BC4501D9FE
:103990003DF810703DF810C06244401C0A28D4D392
:1039A000A1EB030CACEB0601A2EB050CACEB0702A0
:1039B000C1F3CF0CDFF82480A8F800C0C2F3CF0C0D
:1039C000DFF81C80A8F800C00AB0BDE8F081000054
:1039D0006800001000000340801A0600120000106A
:1039E00014000010583A202530346400593A20253C
:1039F0003034640053EA020C00F069802DE9F04B8A
:103A00004FF00006002B1FBFB3FA83F503FA05F44D
:103A100024FA05F65E4012BF1643B2FA82F502FAA6
:103A200005F4C5F120051EBF22FA05FC44EA0C048A
:103A3000203556EA044C4FEA144418BF641C4FF07A
:103A400000084FF00009904271EB030C39D30029B4
:103A500019BFB1FA81F701FA07F6B0FA80F700FA58
:103A600007F6C7F120071EBF20FA07FC46EA0C063E
:103A70002037B6FBF4FCA7EB0507103F07F01F0B40
:103A8000CBF120060CFA0BFB2CFA06F644BFB3462A
:103A90000026202FA4BF5E464FF0000B5BEA060C09
:103AA00008BF4FF0010B19EB0B09ABFB027C48EB95
:103AB0000608C01B06FB02CC0BFB03CC71EB0C0110
:103AC000C1E70B46024641464846BDE8F08B13B5B8
:103AD0004FF000004FF00001AFF30080BDE81C4044
:103AE000704700000FB41CB5074B06AA7B4469461B
:103AF0000090059800F073F90020694600F082F903
:103B00001CBC5DF814FB00001503000070B50446F2
:103B100085690068C10601D5302600E02026C0076F
:103B200008D070BDD4E9012130469047206A00F1E9
:103B3000010020626D1EF5D570BD70B50446856923
:103B40000078C00708D170BDD4E90121202090473A
:103B5000206A00F1010020626D1EF5D570BD0000E5
:103B60002DE9F0410646002410687529314616A556
:103B700011D0AFF30080002803DAC0F1000013A5D4
:103B800007E031688A0701D511A502E0490704D58D
:103B900010A5012401E0AFF3008000210A2306F103
:103BA000240707E0B0FBF3F203FB12003030785437
:103BB0001046491C0028F5D123462A463046BDE868
:103BC000F04100F0AAB80000000000002D00000045
:103BD0002B000000200000002DE9F05F894604461C
:103BE0004FF0000ADFF828B1FB44C0F820A02046BF
:103BF000E168884700287CD0252806D0D4E9012137
:103C00009047206A401C2062F1E700255F4620466D
:103C1000E16888472028064608DB312E06D207EBEC
:103C2000060010F8200C08B10543F0E7A80701D5FD
:103C300025F00405C4F81CA00027C4F818A02A2EFB
:103C400009D0304600F019F938B304EB8708303E4C
:103C5000C8F8186019E059F8041B204604EB8702E5
:103C60009161E1688847012F064618D1E069002874
:103C700020DA25F020051DE0D8F8180000EB8000C0
:103C800006EB40003038C8F818002046E168884745
:103C9000064600F0F2F80028EED1012F0AD02E2EB1
:103CA00008D12046E16888477F1C0646022F45F070
:103CB0002005C4DBA069002803DA404245F0010575
:103CC000A061E80701D025F0100596B1A6F14100EA
:103CD000192802D8203645F400654A463146204668
:103CE00025604D46FCF72CFA60B1012807D0ED1D88
:103CF00000E009E025F0070000F1080977E705F189
:103D0000040974E7304679E7206ABDE8F09F0000B7
:103D10009C0900007047704770472DE9F0470D4639
:103D200099469246044600F124080168880604D5A5
:103D3000E06921F01001216000E00120A84202DDCD
:103D4000A0EB050700E00027A16907EB050202EBE5
:103D50000900A1EB0000A0612078C00602D4204633
:103D6000FFF7D4FE002608E0D4E901211AF8060086
:103D70009047206A401C761C20624E45F4DB207878
:103D8000C0060AD52046FFF7C1FE06E0D4E90121AE
:103D900030209047206A401C2062381EA7F101079E
:103DA000F4DC07E0D4E9012118F805009047206A07
:103DB000401C2062281EA5F10105F3DC2046FFF718
:103DC000BCFE2078000602D50220BDE8F087012065
:103DD000FBE7000001694A1C02610878704700B5E2
:103DE0008FB0CDE901310021059105497944CDE934
:103DF000031011466846FFF7EFFE0FB000BD00004C
:103E0000E5FFFFFF0A6802F8010B0A60704775467C
:103E100000F028F8AE4605006946534620F007003A
:103E2000854618B020B5FCF7B1F9BDE820404FF049
:103E300000064FF000074FF000084FF0000B21F094
:103E40000701AC46ACE8C009ACE8C009ACE8C00961
:103E5000ACE8C0098D4670470446AFF300802046A9
:103E6000FCF780F9004870478000001001491820D5
:103E7000ABBEFEE726000200704730380A2801D2A8
:103E800001207047002070470949096C41F0FF018B
:103E9000074A11644FF0807191634900D163114664
:103EA00048654FF400019163D16301125165704779
:103EB00000C0092070B500254FF480001A49C86180
:103EC00080108861C00088618010C861012000F006
:103ED0002FF800BF1448006C20F0FF00124908645E
:103EE0004FF08070C8634000C863322000F020F8B3
:103EF0000E4804784FF000700B4988634FF0320091
:103F000000F016F8084890F8540040EA04244FF0F6
:103F100080700549886300BF2546C0108861400055
:103F20008861284670BD000000C0092054C00920E7
:103F300008B5009000BF00994A1E00920029FAD1EE
:103F400008BD000010B504464FF480000C49C8615C
:103F50008010C861400088612046FFF795FF462029
:103F6000FFF7E6FF4FF400000549C8610120FFF7A5
:103F7000DFFF4FF40000024988614010886110BDE6
:103F800000C0092070B505460C462846FFF7DAFF49
:103F90002046FEF709FD70BD000000000000000093
:103FA000000000000000000000000000183C3C3C45
:103FB000181800181800000000000000666666006F
:103FC00000000000000000000000000036367F36D0
:103FD00036367F3636000000000018183C66603028
:103FE000180C06663C18180000000070D8DA760C31
:103FF00018306E5B1B0E000000000000386C6C383F
:10400000606F66663B000000000000001818180092
:104010000000000000000000000000000C18183034
:104020003030303018180C00000000003018180C28
:104030000C0C0C0C18183000000000000000361C9E
:104040007F1C36000000000000000000000018186F
:104050007E181800000000000000000000000000B2
:1040600000001C1C0C180000000000000000007E76
:104070000000000000000000000000000000000040
:1040800000001C1C0000000000000006060C0C18BC
:1040900018303060600000000000001E33373733F6
:1040A0003B3B331E000000000000000C1C7C0C0C8D
:1040B0000C0C0C0C000000000000003C6666060CB6
:1040C0001830607E000000000000003C6666061CA0
:1040D0000666663C000000000000003030363636D0
:1040E000667F0606000000000000007E6060607CC5
:1040F00006060C78000000000000001C18307C66EA
:104100006666663C000000000000007E060C0C188D
:1041100018303030000000000000003C6666763C3D
:104120006E66663C000000000000003C6666666645
:104130003E0C18380000000000000000001C1C00AD
:1041400000001C1C0000000000000000001C1C00FF
:1041500000001C1C0C180000000000060C18306049
:1041600030180C06000000000000000000007E0077
:104170007E000000000000000000006030180C0607
:104180000C183060000000000000003C66660C184F
:1041900018001818000000000000007EC3C3CFDB29
:1041A000DBCFC07F00000000000000183C666666A0
:1041B0007E666666000000000000007C6666667C25
:1041C0006666667C000000000000003C6666606079
:1041D0006066663C00000000000000786C66666661
:1041E00066666C78000000000000007E6060607C05
:1041F0006060607E000000000000007E6060607C07
:1042000060606060000000000000003C6666606066
:104210006E66663E00000000000000666666667E10
:1042200066666666000000000000003C181818185A
:104230001818183C0000000000001E0C0C0C0C0CA0
:10424000CCCCCC780000000000000066666C6C7876
:104250006C6C6666000000000000006060606060DA
:104260006060607E000000000000006363776B6B9D
:104270006B636363000000000000006363737B6F87
:1042800067636363000000000000003C66666666CA
:104290006666663C000000000000007C6666667C86
:1042A00060606060000000000000003C66666666BA
:1042B0006666663C0C0600000000007C6666667C54
:1042C0006C666666000000000000003C6660301806
:1042D0000C06663C000000000000007E181818184C
:1042E0001818181800000000000000666666666670
:1042F0006666663C00000000000000666666666652
:1043000066663C18000000000000006363636B6B8E
:104310006B36363600000000000000666634181860
:104320002C66666600000000000000666666663C5B
:1043300018181818000000000000007E06060C186F
:104340003060607E000000000000003C3030303003
:104350003030303030303C000000006060303018C9
:10436000180C0C06060000000000003C0C0C0C0CA5
:104370000C0C0C0C0C0C3C0000183C6600000000FF
:10438000000000000000000000000000000000002D
:10439000000000000000FF000038180C00000000C2
:1043A000000000000000000000000000003C0606C5
:1043B0003E66663E0000000000000060607C6666AD
:1043C0006666667C0000000000000000003C66603D
:1043D0006060663C0000000000000006063E666665
:1043E0006666663E0000000000000000003C666655
:1043F0007E60603C000000000000001E3030307E17
:10440000303030300000000000000000003E6666E2
:104410006666663E06067C0000000060607C66669C
:10442000666666660000000000001818007818181C
:104430001818187E0000000000000C0C003C0C0C4A
:104440000C0C0C0C0C0C7800000000606066666CB4
:10445000786C6666000000000000007818181818D4
:104460001818187E0000000000000000007E6B6B32
:104470006B6B6B630000000000000000007C666650
:10448000666666660000000000000000003C66668C
:104490006666663C0000000000000000007C666666
:1044A0006666667C6060600000000000003E666634
:1044B0006666663E060606000000000000666E7036
:1044C000606060600000000000000000003E60606E
:1044D0003C06067C0000000000000030307E3030DA
:1044E0003030301E000000000000000000666666EC
:1044F0006666663E0000000000000000006666661A
:1045000066663C18000000000000000000636B6B52
:104510006B6B363600000000000000000066663C51
:10452000183C666600000000000000000066666639
:104530006666663C0C18F00000000000007E060C69
:104540001830607E000000000000000C18181830C1
:1045500060301818180C00000000001818181818FF
:104560001818181818181800000000301818180C1F
:10457000060C18181830000000000071DB8E0000D7
:10458000000000000000000004000008000000001F
:10459000000000020001000010000000BC45000007
:1045A000000000101800000008010000D4450000C1
:1045B00018000010C80200002401000000E1F50509
:1045C00000000000000000000000000000000000EB
:0445D00000000000E7
:04000005000000CD2A
:00000001FF
